:020000040800F2
:10000000000400209101000839A0000893010008B5
:100010009301000893010008930100089301000870
:100020009301000893010008930100089301000860
:100030009301000893010008930100089301000850
:100040009301000893010008930100089301000840
:100050009301000893010008930100089301000830
:100060009301000809AF000835AC000855AC000842
:100070009301000893010008930100089DB3000854
:10008000C1B500089301000893010008930100081E
:1000900093010008930100089301000893010008F0
:1000A00093010008930100089301000893010008E0
:1000B00093010008930100089301000811B600089D
:1000C00072B6244880F30888234880F30988022008
:1000D00080F31488BFF36F8F09F0A2FC09F06EF86B
:1000E0001E481F491B4A914202DA08600431FAE7B0
:1000F0001C49194A914202DA08600431FAE71A49A8
:100100001A4A1B4B9A4204DA086810600431043220
:10011000F8E700201749184A914202DA08600431D2
:10012000FAE709F081FC09F07CFC144C144DAC4258
:1001300003DA216888470434F9E704F067FC114CBE
:10014000114DAC4203DA216888470434F9E70F49BE
:100150000847000000040020000C002055555555AC
:10016000000000200004002030D60008000C002011
:100170006012002060120020E02C0020C000000867
:10018000C0000008C0000008C0000008259A000850
:1001900096E700F000F8FEE7F0B544464D465646B7
:1001A0005F46F0B46B46CB60C3689D46F0BCA0468A
:1001B000A946B246BB46F0BD62B6281CA047002047
:1001C00009F0B4FEFEE709F017FE024A024B136085
:1001D000FEE7C04604ED00E00000008002B4714676
:1001E00049084900095649008E4402BC7047C04680
:1001F00002B4714649084900095C49008E4402BCBA
:100200007047C04603B47146490840004900095A86
:1002100049008E4403BC7047002243088B4274D3CC
:1002200003098B425FD3030A8B4244D3030B8B42F7
:1002300028D3030C8B420DD3FF22090212BA030C00
:100240008B4202D31212090265D0030B8B4219D3E1
:1002500000E0090AC30B8B4201D3CB03C01A524101
:10026000830B8B4201D38B03C01A5241430B8B4249
:1002700001D34B03C01A5241030B8B4201D30B0332
:10028000C01A5241C30A8B4201D3CB02C01A524159
:10029000830A8B4201D38B02C01A5241430A8B421C
:1002A00001D34B02C01A5241030A8B4201D30B0205
:1002B000C01A5241CDD2C3098B4201D3CB01C01A1F
:1002C000524183098B4201D38B01C01A5241430929
:1002D0008B4201D34B01C01A524103098B4201D317
:1002E0000B01C01A5241C3088B4201D3CB00C01A84
:1002F000524183088B4201D38B00C01A52414308FC
:100300008B4201D34B00C01A5241411A00D2014620
:10031000524110467047FFE701B5002000F0F0F8A9
:1003200002BDC0460029F7D076E7704703460B436D
:100330007FD4002243088B4274D303098B425FD3DE
:10034000030A8B4244D3030B8B4228D3030C8B420A
:100350000DD3FF22090212BA030C8B4202D31212F0
:10036000090265D0030B8B4219D300E0090AC30BC5
:100370008B4201D3CB03C01A5241830B8B4201D372
:100380008B03C01A5241430B8B4201D34B03C01A5B
:100390005241030B8B4201D30B03C01A5241C30AD3
:1003A0008B4201D3CB02C01A5241830A8B4201D344
:1003B0008B02C01A5241430A8B4201D34B02C01A2E
:1003C0005241030A8B4201D30B02C01A5241CDD2D3
:1003D000C3098B4201D3CB01C01A524183098B421E
:1003E00001D38B01C01A524143098B4201D34B0107
:1003F000C01A524103098B4201D30B01C01A52416A
:10040000C3088B4201D3CB00C01A524183088B42F0
:1004100001D38B00C01A524143088B4201D34B00D9
:10042000C01A5241411A00D201465241104670474B
:100430005DE0CA0F00D04942031000D34042534050
:1004400000229C4603098B422DD3030A8B4212D310
:10045000FC22890112BA030A8B420CD38901921142
:100460008B4208D3890192118B4204D389013AD07F
:10047000921100E08909C3098B4201D3CB01C01A54
:10048000524183098B4201D38B01C01A5241430967
:100490008B4201D34B01C01A524103098B4201D355
:1004A0000B01C01A5241C3088B4201D3CB00C01AC2
:1004B000524183088B4201D38B00C01A5241D9D2DA
:1004C00043088B4201D34B00C01A5241411A00D25B
:1004D0000146634652415B10104601D34042002B57
:1004E00000D54942704763465B1000D3404201B5D6
:1004F000002000F005F802BD0029F8D016E770478B
:100500007047C046002B11D1002A0FD1002900D11D
:10051000002802D00021C943081C07B4024802A1E8
:100520004018029003BDC046D9FFFFFF03B46846E0
:1005300001B5029800F030F8019B9E4602B00CBC59
:100540007047C046F0B5CE46474615042D0C2E0028
:1005500080B50704140C3F0C9946030C7E435D43A1
:10056000674363437F19340CE4199C46A54203D9C1
:1005700080235B029846C4444B4643435143250CB9
:1005800036046544360C2404A4195B19591820005C
:10059000C0BCB946B046F0BDF0B557464E464546DC
:1005A000DE46E0B5040083B00D00924699468B42CA
:1005B00030D82DD04946504600F0C0F8290006003A
:1005C000200000F0BBF8331A9846203B9B4633D4FA
:1005D0005A465346934042461F00534693401E00DE
:1005E000AF423AD8AF4200D17BE05B46A41BBD418D
:1005F000002B00DA78E0002200230092019301230F
:100600005A4693400193012342469340009328E0C9
:100610008242CFD900220023009201930C9B002B31
:1006200001D01C605D600098019903B0F0BCBB462E
:10063000B246A946A046F0BD424620239B1A524628
:10064000DA40414613004A468A40170042461F439B
:10065000534693401E00AF42C4D9002200230092AB
:1006600001934346002BD9D0FB079C466146720894
:100670000A437B0846460EE0AB4201D1A2420CD8A9
:10068000A41A9D41012024196D410021013E241826
:100690004D41002E06D0AB42EED9013E24196D41EA
:1006A000002EF8D1009801995B4600196941002B92
:1006B00025DB2B005A464446D3402A00E2401C006A
:1006C0005B461500002B2BDB26005F46BE40330047
:1006D00026004746BE403200801A994100900191A1
:1006E0009CE7A342B9D880E74246202300219B1A09
:1006F0000022009101920122DA40019283E74246F2
:1007000020239B1A2A0046469A402300F340444681
:1007100013432A00E2401C005B461500002BD3DA8D
:100720002023424626009B1ADE402F00B446464650
:10073000B74066463B003343CAE7C04610B50029C0
:1007400003D100F007F8203002E0081C00F002F8A6
:1007500010BDC0461C2101231B04984201D3000C8C
:1007600010391B0A984201D3000A08391B09984224
:1007700001D30009043902A2105C40187047C0463A
:10078000040302020101010100000000000000005A
:1007900010B5062000F016FA01200BF073FAC046DF
:1007A00070B5CDB2830734D0531E002A1BD0027817
:1007B000AA4219D0032404E0013B14D30278AA42D0
:1007C00012D001302042F7D1032B0ED8002B0AD0D3
:1007D0000278AA4208D0C31802E00278AA4203D0E5
:1007E00001308342F9D1002070BDFF220C06240C99
:1007F000114021430C04084E0C4302680749624033
:10080000511891433142E3D1043B0430032BF4D817
:10081000DCE71300D8E7C04680808080FFFEFEFE44
:1008200030B5032A0CD903000B439B071CD1036886
:100830000C68A34218D1043A04300431032AF6D8D4
:10084000551E002A0ED002780C7894420ED1013544
:100850000123013904E0C25C0133CC5CA24205D122
:10086000AB42F8D1002030BD551EECE7101BFAE773
:10087000F0B5C64600B50F2A43D90B000326034343
:100880001E400C000300002E40D11500103D2D0924
:10089000AC462D01A846804400E03B00676825680F
:1008A0005F60E7681D60DF601F00A56810379D600E
:1008B00010344345F1D165460F230C2401352D0139
:1008C000491913404519144223D08C59AC510436B0
:1008D0009C1B032CF9D80324043B9B0801339B0089
:1008E0002240ED18C918561E002A07D0002300E048
:1008F0002300CA5C5C1CEA549E42F9D180BCB84615
:10090000F0BD0500561E002AF0D1F7E7561E05007F
:10091000ECE71A00F6E7C046F0B5050083074AD0B9
:10092000541E002A44D0CEB20300032202E0013557
:10093000013C3DD301332E701342F8D1032C2FD943
:10094000FF220A40150215432A0415430F2C35D9FE
:100950002700103F3F093E01B4461E001A00103622
:100960006644156055609560D5601032B242F8D18A
:100970000F260C2201373F012640DB1937002242A7
:1009800017D03E1FB608B400A4461A001C1D6444CC
:1009900020C2A242FCD103240136B6009B193C4080
:1009A000002C05D0C9B21C19197001339C42FBD12F
:1009B000F0BD3400F4E714000300BFE72700E0E7D0
:1009C000114B70B51C680500A06B002803D00023F4
:1009D0000561436170BD183000F07EF9A063002806
:1009E0000CD00A4B01220360094B4360094B836022
:1009F0000B238381002302614361E8E7064B002259
:100A00004221064800F024F9000C00200E33CDAB43
:100A100034126DE6ECDE050060D5000878D50008DC
:100A2000184B70B51D68AC6B002C0ED02069616945
:100A3000154A164BFFF786FD0122002312184B4181
:100A4000580040082261636170BD182000F044F92D
:100A5000041EA8630FD00E4B012203600D4B4360B0
:100A60000D4B83600B2383810023026143610748A0
:100A70000A4A064BE6E70A4B00224E21094800F0DD
:100A8000E7F8C046000C00202D7F954C2DF45158FE
:100A90000E33CDAB34126DE6ECDE05002E7F954CA7
:100AA00060D5000878D5000810B58021040000F05A
:100AB0007DF96064002807D002000023803208C05E
:100AC0009042FCD1002010BD01204042FBE7C0460F
:100AD000426C10B50023002A01D0180010BDFFF7AA
:100AE000E3FF0300F9E7C04670B505000C001600EF
:100AF0001F2907D8436C002B09D0A4001B191868C4
:100B00001E6070BD1623036001204042F9E7FFF725
:100B1000CBFF002801D16B6CEFE701204042F0E7EA
:100B200070B505000C001F2920D8436C002B0ED097
:100B30008A009B181A68002A09D0012A14D0511C77
:100B40000ED00021200019609047002070BD2800C1
:100B500000F07AF822000100280000F061F8F5E7C3
:100B6000162303600120F1E70020EFE7162303605E
:100B700001204042EAE7C04670B505000C001F297D
:100B80001DD8436C002B10D0A2009B181A68002AB5
:100B900009D0511C11D0012A0DD00021200019606C
:100BA0009047002070BD0120FCE7FFF77DFF002883
:100BB00005D16B6CE8E70320F4E70220F2E701209F
:100BC0004042EFE710B5034B01001868FFF7A8FF9C
:100BD00010BDC046000C002010B5044B0A001B6875
:100BE00001001800FFF780FF10BDC046000C002078
:100BF000054B10B51B6800205A6C002A00D010BDB0
:100C00001800FFF751FFFAE7000C002010B5034B66
:100C100001001868FFF7B0FF10BDC046000C0020AF
:100C2000002370B5074C05000800110023600BF08D
:100C300031F8431C00D070BD2368002BFBD02B6023
:100C4000F9E7C046B82C002010B50BF02BF810BD0A
:100C500030B51C000A4B05001B6885B0D868002A17
:100C60000AD0084B0292019300912B002200064902
:100C700000F020F8FFF78CFD044B1A00F2E7C046A5
:100C8000000C0020ACD50008BCD50008B8D5000881
:100C9000130010B50022FFF7DBFFC0460CB400B50F
:100CA00083B004AB04CB019300F01EF903B008BC81
:100CB00002B018470EB400B582B003AB010005487E
:100CC00004CB0068019300F00FF902B008BC03B038
:100CD0001847C046000C002010B5034B01001868EF
:100CE00000F064F810BDC046000C002010B5034BA6
:100CF0000100186800F004F810BDC046000C002088
:100D000070B50500002915D00C1F2368002B27DBC8
:100D1000280001F099FA244B1A68002A05D0A24253
:100D20000CD921686018824224D0626028001C60BF
:100D300001F092FA70BDA34203D81A005368002B49
:100D4000F9D111685018A0421BD027D8216860182B
:100D5000834207D063605460280001F07DFAE9E720
:100D6000E418D5E718685B688446614421606360D5
:100D70005460F1E710685268844661442160626003
:100D8000D4E720680918501811608342E4D118682C
:100D90005B688446614411605360DDE70C232800E2
:100DA0002B6001F059FAC5E760120020F8B5032363
:100DB000CD1C9D43083506000C2D2AD20C25A942D6
:100DC00029D8300001F040FA2A4F3A68002A0AD0A8
:100DD00013685B1B04D441E023685B1B1FD5220012
:100DE0005468002CF8D17B68002B3DD029003000DE
:100DF0000AF02CFF431C2AD00323C41C9C43A042AE
:100E000005D0211A30000AF021FF431C1FD02560B5
:100E100010E0002DD3DA0C2300203360F8BD0B2B3B
:100E200005D86368A2421DD0536003E0140023601C
:100E3000E4182560300001F00FFA200007220B3083
:100E4000231D9043C21AE9D01B1AA350E6E70C23D6
:100E50003000336001F000FA0020DFE70B2BE5D80B
:100E6000140053683B60E5E7002130000AF0EEFE15
:100E70007860BBE760120020936810B5013B936077
:100E8000002B04DA9469A34207DB0A2905D0136812
:100E9000581C10600800197010BD00F0BFFBFBE784
:100EA000F8B506000F00002B0DD01400D51802E095
:100EB0000134AC4207D021783A003000FFF7DCFF64
:100EC000431CF5D1F8BD0020FCE7C046936810B57F
:100ED0001400002B02D10020536010BD00F0FAFE78
:100EE0000023A3606360F8E7F0B5DE464E46574640
:100EF0004546E0B59FB003908B4691461C00002804
:100F000004D083690293002B00D1CEE0BF4B9B45F8
:100F100000D1D0E0BE4B9B4500D1D0E0BD4B9B45FE
:100F200000D16FE15A465B46526E9B89D20702D4CC
:100F30009A0500D45FE11B0700D443E15B461B69BF
:100F4000002B00D13EE1002306AD6B6120336B76B0
:100F50001033AB762F3B98465B4602934B461B788B
:100F60000594AD4FB346002B00D188E0252B00D16E
:100F700026E14E4603E0252B00D1A4E0260073783D
:100F8000741C002BF7D14B46E31A9A4677D0534690
:100F90004A4602990398FFF783FF431C6FD06B69A1
:100FA00053446B617378002B69D0012200235242B5
:100FB0006A60443201342B60EB60AB60AB54AB65CC
:100FC00006E04346C01B834034002A6813432B606D
:100FD000217805223800FFF7E3FB661C0028F0D1DA
:100FE0002B68B246DA0602D543222021A9541A07FB
:100FF00002D543222B21A95421782A2969D1059AA7
:10100000111D12680591002A00DAB5E0EA606178E6
:10101000A61C2E2900D175E0804B032218009946AA
:10102000FFF7BEFB002800D18AE04B46C01A4023E0
:1010300083402A68317813432B600622731C78485A
:1010400099462976FFF7ACFB002800D183E0754B69
:10105000002B00D189E005AB0093029A724B290066
:10106000039800E000BF83465B46013307D06B69FD
:101070005B446B614B461B78002B00D076E7029BEC
:101080009B465B6EDB0700D597E05B469B899A0524
:1010900000D48EE05B0600D5A7E068691FB0F0BC05
:1010A000BB46B246A946A046F0BD00F0EDFC574B4A
:1010B0009B4500D02EE7039B5B689B4632E7039B72
:1010C0009B689B462EE74B46E31A9A4600D16CE795
:1010D0005DE70A00303AA246092A9AD8EB68180060
:1010E00001E03400013683001B1831785B0098184A
:1010F0000A00303A092AF4D9B246E860A61C2E2923
:1011000000D089E7534659782A293BD1059B1A1DFF
:10111000059252469178D61C022294461B68E244FE
:101120006B60002B00DB77E701235B426B603B4B7E
:10113000032218009946FFF733FB002800D074E71C
:10114000B14656463178062235482976FFF728FB06
:10115000002800D07BE705AB0093029A324B2900B0
:10116000039800F007F983467EE70722059B0733C3
:101170009343083305937AE75242EA60022213430D
:101180002B6044E70A000023303A6B601800092AFC
:1011900001D92DE01E0083001B1871785B009818A0
:1011A0000A00303A731C092AF4D99A46023668605C
:1011B00032E75B46986D00F077FF5B469B8969E7F5
:1011C0004C46F2E65946039800F09EFA002800D1FA
:1011D000B9E65B465B6EDB0707D45B469B899B05E4
:1011E00003D45B46986D00F05FFF0120404255E755
:1011F000B246013610E75B46986D00F04DFF5B4646
:101200009B8998E6039BDB689B468BE6F4BD000850
:10121000D4BD0008B4BD0008ECD50008F4D5000822
:10122000F8D5000800000000A10E000810B5040069
:101230001300034A10680A002100FFF755FE10BD95
:10124000000C0020F0B54F464646D646C0B51F00FC
:10125000089B914698468A680B6906000C009342E9
:1012600000DA13004A4613604322A25C002A02D02F
:101270004A460133136023689A065AD54B461B68C9
:1012800006209A1C4B461A6023681900184208D1A0
:10129000E16800258A1A19218A461900A244002A09
:1012A0003FDC4323E35C5A1E93418A060AD5302073
:1012B000E1184331087045215A1C615CA218433281
:1012C000023311702200390043323000C047431C02
:1012D00019D006232068A26821690340042B30D06E
:1012E0008A423ADD00239946521A91441A34002565
:1012F00002E001354D4530DA01232200390030008B
:10130000C047431CF5D101204042E0BCBA46B1467B
:10131000A846F0BD4B46E2681B680135D31AAB42C4
:1013200020DD0123524639003000C047431CF1D173
:10133000E9E706221A4212D04323E35C5A1E934186
:10134000C0E74B46E0681B68C31AD843C017184073
:1013500081468A42C8DC002BC8DC0020D5E74A461B
:10136000126895E743232168E35C5A1E93418A067D
:101370009DD4A7E7F0B557469A4643239C464E4670
:101380004546DE468C446346E0B587B003930B7E4A
:10139000914680460C00109A6E2B00D1D8E000D800
:1013A00071E0732B00D11AE100D881E0752B00D1D8
:1013B000FFE0782B00D00BE10B68782045216054CA
:1013C00094498B46116840C91160180603D4580629
:1013D00001D53604360CDA0702D5202213432360E8
:1013E0001027002E00D1C2E043230022E25463689C
:1013F000A360002B00DAC5E004222168914321603C
:10140000002E00D083E0002B00D0BDE0039D082F0C
:1014100000D18CE0039B5B1B2361534605AA00931C
:1014200021004B464046FFF70DFF431C22D02369A5
:101430002A0049464046D047431C1BD022680598E5
:10144000E368920700D47FE01A1A002A00DC7BE0F0
:1014500026000025193606E0E368059801351A1ABA
:10146000AA4200DC70E00123320049464046D047E2
:10147000431CF1D10120404207B0F0BCBB46B2464C
:10148000A946A046F0BD632B00D184E01FD8002BF5
:1014900069D0582B00D09BE0452163545E492368F6
:1014A0008B46116840C91160180600D48FE792E797
:1014B0006F2B7ED0702B00D08AE020230968782023
:1014C0000B4345212360605452498B467AE7642BD5
:1014D00001D0692B7CD111682368081D10601D069E
:1014E0004AD50A681600002A03DB4B4B0A279B46A5
:1014F0007DE743222D21A15462687642A260002A32
:1015000002DB042293432360434B0A279B46039D3F
:1015100000E0060039003000FEF704FF5B465B5C2C
:10152000013D2B70BE42F4D2082F00D072E7236831
:10153000DB0700D46EE763682269934200DD69E748
:101540003023013D2B7065E7984295DA180093E748
:10155000136809681D1D606915601B680E0601D4BB
:1015600049064BD418600023039D236155E72023CF
:1015700022689A43226037E75D06B2D500228E5E6C
:101580003200B0E7002EC2D15B4625001A78422314
:101590004235E2543BE713682500191D11601A68B3
:1015A0004223E254413B4235236143230022E2546B
:1015B00033E7116820680D1D1560060601D440064A
:1015C0001ED40E686F2B1DD0134B0A279B460BE7CA
:1015D00042222500A354012342352361E5E7136825
:1015E000191D11601D68626800212800FFF7D8F8F6
:1015F00000280BD0401B60602061D6E71880B2E75E
:101600000E88DFE7044B08279B46EDE66068206103
:10161000CBE7C04614D6000800D60008F8B5050090
:101620000E001400002802D08369002B29D02D4B16
:101630009C422BD02C4B9C4246D02C4B9C424ED0F3
:10164000A369A360A3891B0726D52369002B23D098
:10165000FF22F7B2616916402268D31A99422ADD47
:101660000133A1680139A160511C216017706269C2
:101670009A422BD0A389DB0701D50A2E26D0300051
:10168000F8BD00F001FA174B9C42D3D16C68A369F6
:10169000A360A3891B07D8D42100280000F034F8E8
:1016A000002819D1FF222369F7B261691640226828
:1016B000D31A9942D4DC2100280000F045F9002813
:1016C0000AD122680123CCE7AC68B9E721002800E1
:1016D00000F03AF90028D2D001267642CFE7EC6834
:1016E000AEE7C046F4BD0008D4BD0008B4BD000894
:1016F00010B5044B0A001B6801001800FFF78EFFAD
:1017000010BDC046000C00203E4B70B51D680600A1
:101710000C00002D02D0AB69002B1BD03A4B9C4231
:101720001ED03A4B9C424CD0394B9C4260D00C238B
:10173000E25E93B2190719D52169002921D0DA0791
:101740002ED50023A360636900205B42A3610029BA
:101750002ED070BD280000F097F92B4B9C42E0D1B1
:101760006C680C23E25E93B21907E5D4D90641D523
:101770005B0728D4216908231343A3819BB2002966
:10178000DDD1A0228020920080001A408242D6D073
:101790002100300000F0B2FCA3892169DA07D0D41F
:1017A00000229B0700D46269A26000200029D0D1EA
:1017B0000C22A35E1A06CCD540221343A381013824
:1017C000C7E7AC68B3E7616B00290AD02300443354
:1017D000994204D03000FFF793FA0C23E25E002315
:1017E000636324239A430023216963602160C2E775
:1017F000EC689CE709233360402301201A43A2814F
:101800004042A6E7000C0020F4BD0008D4BD00084B
:10181000B4BD0008F0B5C64600B58B8980460C0003
:101820001A0745D44A68002A63DDE56A002D3BD0DB
:1018300042464146166800220A60216ADA045CD4F6
:10184000012300224046A847431C61D0A389E56AD2
:10185000216A5B0706D56368C01A636B002B01D051
:10186000236CC01A002302004046A847431C46D1FF
:1018700043461B680C21625E002B56D01D2B01D005
:10188000162B5DD100236360236923604346616B9F
:101890001E60002908D023004433994202D04046FC
:1018A000FFF72EFA00236363002080BCB846F0BD2A
:1018B0000E69002EF8D00A680E60951B00229B0767
:1018C00000D14A69A260002D04DCEDE736182D1A1C
:1018D000002DE9DD2B003200216A4046A76AB84797
:1018E0000028F3DC40220120A38940421343A38156
:1018F000DBE70A6C002A98DCD6E7606DA9E70023D5
:10190000636023692360A389DB04BFD56065BDE7FD
:1019100043461B68002B99D01D2B0DD0162B0BD0E6
:101920004022A3891343A381BFE763602369236037
:10193000D304ABD56065A9E7434600201E60B4E739
:1019400040231A43A281B0E70B6970B505000C0073
:10195000002B23D0002802D08369002B22D0194B02
:101960009C421DD0184B9C421FD0184B9C4226D045
:101970000C22A35E002B11D0626ED20701D49B050E
:1019800019D528002100FFF745FF636E0500DB072E
:1019900002D4A3899B050AD5280070BD0025FBE76A
:1019A0006C68E5E700F070F8D9E7AC68E0E7A06D97
:1019B00000F07AFBF0E7A06D00F06EFBE1E7EC6869
:1019C000D6E7C046F4BD0008D4BD0008B4BD000889
:1019D00010B5011E04D0054B1868FFF7B5FF10BD08
:1019E000034B0449186800F027FBF8E7000C0020BF
:1019F000B0BD00084919000810B5024900F01CFBF1
:101A000010BDC04649190008436E10B5DB0702D46B
:101A100083899B0501D5002010BD806D00F03CFB43
:101A2000F9E7C046436E10B5DB0702D483899B05F6
:101A300001D5002010BD806D00F036FBF9E7C046EF
:101A400070B568244A1E54430E0021007431FFF71C
:101A5000ADF9051E09D000232200036046600C305A
:101A6000A86068320021FEF757FF280070BDC0460D
:101A700010B5034B0349186800F0DEFA10BDC046EC
:101A8000B0BD000849190008F0B5DE464546574686
:101A90004E46E0B505003D4B83B018009B4600F074
:101AA000FBFAAB69002B64D1AB64EB642B65384B5C
:101AB000384A1B68AA620193AB4264D0280000F048
:101AC00077F86860280000F073F8A860280000F03C
:101AD0006FF86E680024E86004233000F3607466D9
:101AE00034607460B46034617461B46108220021B0
:101AF0005C30FEF711FF284B284F9A467362284B43
:101B000036629946B362274B3763F362AE689846F4
:101B10003000254B7466F36034607460B4603461E7
:101B20007461B461082200215C30FEF7F5FE534673
:101B300073624B46B36243463662F3623763EE68C4
:101B40001A4B3000F360746634607460B4603461C2
:101B50007461B4615C3008220021FEF7DDFE53465B
:101B600073624B46B3624346F362012336623763C6
:101B7000AB61584600F098FA03B0F0BCBB46B246E1
:101B8000A946A046F0BD0123AB6197E7C82C002011
:101B9000B0BD0008F9190008B92200085123000857
:101BA000E5220008252300080900010012000200B8
:101BB000F8B5254E0700300000F06EFA234B1D6883
:101BC000AB69002B2ED048356B68AC68013B03D560
:101BD00023E06834013B20D30C21625E002AF8D157
:101BE000002520001A4B5830E360656600F04CFA7F
:101BF000300000F059FA20002560A560656025617D
:101C00006561A561082200215C30FEF785FE6563F1
:101C1000A563A564E5642000F8BD2C68002C05D000
:101C20002500D1E72800FFF72FFFCCE7042138007B
:101C3000FFF706FF041E2860F2D1300000F034FAEE
:101C40000C233B60E7E7C046DC2C0020B0BD000859
:101C50000100FFFF10B5024800F01EFA10BDC0469B
:101C6000DC2C002010B5024800F01EFA10BDC04662
:101C7000DC2C002010B5024800F00EFA10BDC04662
:101C8000C82C002010B5024800F00EFA10BDC04666
:101C9000C82C002010B5044800F0FEF9034B04499D
:101CA000186800F0A7F910BDDC2C0020000C002003
:101CB000091A000810B5044B0449186800F09AF995
:101CC000034800F0F1F910BD000C0020251A0008AF
:101CD000DC2C0020F0B54546DE4657464E46E0B5C2
:101CE000936883B000900C009046002B6DD08B89D8
:101CF0001A0700D471E00A69002A00D16DE042465B
:101D000016689A0700D475E0A36A00279A46B54B77
:101D100000259946216A002D16D02B004D4500D98B
:101D2000B04B3A000098D047002800DCD5E043468D
:101D30009B683F182D1A181A4346986045D0A36A2D
:101D4000216A9A46002DE8D1376875680836E2E7BF
:101D50004B461B689A464B465F6808239C46E14405
:101D6000002FF5D03A000A215046FEF719FD002851
:101D700000D1CEE053460130C61A3300BB469F4225
:101D800000D99B46206822696369904204D9A26801
:101D90009D18AB4500DD92E05B4500DDF9E0A56AEA
:101DA0005246216A0098A847051E00DC95E0761B84
:101DB0000120002E00D1E4E043469B68AA447F1B2B
:101DC0005D1B43469D6000D095E0002003B0F0BC51
:101DD000BB46B246A946A046F0BD21000098FFF7D9
:101DE00093FC002800D0F9E04246A38916689A07C0
:101DF00000D589E7DA0778D4002291468022920044
:101E000000279346A5682068002F53D05A461342F6
:101E100000D181E0AA46BD4200D9AFE09022D200B5
:101E200013422ED02169451AAC46606901954200E3
:101E30001218D00F8218781C5210604492469042BB
:101E400001D9824602005B0500D4AFE01100009882
:101E5000FEF7ACFF051E00D1BAE0019A2169FEF73A
:101E600007FDA389604A134080221343A381524691
:101E7000019B2561E818BA463D00D31A20606261D3
:101E8000A3605246494600F081F9A3685D1BA56036
:101E90003D00002723685344236043469B68A944C0
:101EA0005D1B43469D6000D18FE7A5682068A3892C
:101EB000002FABD13268776891460836A4E75146C7
:101EC0002A0000F063F9236821005B192360009861
:101ED000FFF73AFD002800D169E70C22A35E4022FB
:101EE00001201343A381404270E70023B146002044
:101EF0009A4600271E00002F00D129E7002800D0B5
:101F00003BE73A000A215046FEF74AFC002800D081
:101F100030E77B1C1E0031E72369834217D36369D6
:101F20009A46BB4213D8314B38009F4200D9304803
:101F30005146FEF7FBF953464A464343216A00984F
:101F4000A56AA8470028C8DD05007F1BA5E7BD429C
:101F500000D93D002A00494600F018F9A36822681C
:101F60005B1B5219A3602260002BEED12100009868
:101F7000FFF7EAFC0028B0D17F1B8EE73D00BA4690
:101F80007FE721000098FFF7DFFC002800D113E76E
:101F9000A3E75A46514600F0F9F85A46A3685D4651
:101FA0009B1AA36023685B44236000E7009800F05D
:101FB0005BF9051E00D05AE7009D21692800FEF755
:101FC0009FFE8022A3899343743A1BB22A6086E75E
:101FD0000C23009A13600C22A35E80E7012040428C
:101FE000F4E6C04600FCFF7F7FFBFFFFFEFFFF7FA4
:101FF000FFFFFF7FF0B5C646483000B588460700B2
:102000000026002813D07B68BC685D1E0CD4A38911
:10201000012B06D90E22A35E013302D02000C04757
:1020200006436834013DF2D23F68002FEBD1300007
:1020300080BCB846F0BDC046F8B54746CE4680B530
:1020400007004837804689460026002F14D07B6859
:10205000BC685D1E0DD4A389012B07D90E22A35E97
:10206000013303D021004046C84706436834013D90
:10207000F1D23F68002FEAD13000C0BCB946B0466B
:10208000F8BDC0467047C0467047C0467047C0465E
:102090007047C0467047C0467047C0460120704731
:1020A000012070477047C0467047C04670B50C00AD
:1020B0001D000E23C95E96B01600002914DB6A4687
:1020C00009F0D1FD00280FDBF022019B1202134022
:1020D000094A944663445A4253412B608023DB00F3
:1020E0003360002016B070BD00232B60A3891B064F
:1020F000F4D540233360F4E700E0FFFF70B58B892F
:1021000082B006000C009B0707D5230047332360ED
:1021100023610123636102B070BD01AB6A46FFF722
:10212000C5FF009905003000FEF740FE002810D0E2
:102130008022154BB362A38920601343009A1BB21F
:102140006261019AA3812061002A0CD12B43A381F3
:10215000E1E70C22A35E9A05DDD403229343022219
:102160001343A381D1E70E23E15E300009F087FD20
:10217000002802D10C22A35EE8E70322A38993433F
:10218000012213431BB2E1E7F9190008F0B5C64676
:1021900000B588420CD98B18984209D2531E002AE8
:1021A00003D0CA5CC254013BFBD280BCB846F0BD30
:1021B0000F2A0CD80500561E002AF6D0002300E096
:1021C0002300CA5C5C1CEA549E42F9D1EDE70B0087
:1021D000032603431E400C000300002E2ED11500E1
:1021E000103D2D09AC462D01A846804400E02B008F
:1021F0001D00276810351F6067685F60A7689F60D3
:10220000E7681034DF604345F1D165460F230C24A5
:1022100001352D01491913404519144211D08C592B
:10222000AC5104369C1B032CF9D80324043B9B08B7
:1022300001339B00ED18C9182240BCE7561E05006B
:10224000BCE71A00B7E7C04610B50248FFF724FF05
:1022500010BDC046CC2C002010B50248FFF724FF6B
:1022600010BDC046CC2C0020F8B507000C001500AE
:1022700000291BD0002A15D000F070F82600A842D3
:1022800001D33000F8BD29003800FEF78FFD061E8F
:10229000F7D021002A00FEF7EBFA21003800FEF704
:1022A0002FFDEEE7FEF72CFD0026EAE71100FEF712
:1022B0007DFD0600E5E7C04670B50C000E25495FC0
:1022C00009F0B9FC002803DB636D1B18636570BD62
:1022D000A389024A1340A381F9E7C046FFEFFFFF3D
:1022E00000207047F8B516001F000C228B5E0C0012
:1022F00005000E22895EDA0508D4094A2800134039
:10230000A38132003B0009F09DFCF8BD00220223AE
:1023100009F096FC0C22A35E0E22A15EEDE7C046FA
:10232000FFEFFFFF70B50C000E25495F09F088FC38
:10233000431C06D08023A2895B011343A3816065FF
:1023400070BDA389014A1340A381F9E7FFEFFFFFA6
:1023500010B50E23C95E09F077FC10BD0B1F1B687A
:10236000181F002B00DB70470B58C018FBE7C04656
:10237000064B10B5002B02D000E000BF10BD1800C6
:102380000329FBD8024B585CF8E7C0460000000068
:1023900014BE000843425841C0B27047054B10B507
:1023A000002B02D000E000BF10BD0800FFF7F2FFD5
:1023B000FAE7C046000000000123F0B587B00191A4
:1023C0000373002547798679040006F039FC02ABD7
:1023D000DD8002AB58801F705E70022302AAFF33BB
:1023E0009380100001F0C4F8019BAB420DD06779D7
:1023F000A67906F025FC012204AB059558801F70D4
:102400005E701A71180001F0B3F80023237307B04F
:10241000F0BD0000384B10B5C01807280CD8FDF7E8
:10242000E7FE0414222E3A46525E022905D0032903
:1024300007D0042001290FD010BD082000F09AFE1B
:10244000FAE7082000F09EFEF6E7022907D00329EC
:1024500007D016200129EFD100F0D5FBECE70420CE
:10246000ECE70420EEE7022905D0032905D0072078
:102470000129E1D1F0E70800E0E70220E2E70229C4
:1024800005D0032905D009200129D5D1E4E7012091
:10249000D4E70120D6E7022905D0032905D00D2075
:1024A0000129C9D1D8E71020C8E71020CAE70229BE
:1024B00005D0032905D00E200129BDD1CCE720206D
:1024C000BCE72020BEE7022905D0032905D00F2054
:1024D0000129B1D1C0E74020B0E74020B2E702298E
:1024E00005D0032905D00129A6D13320B4E78020E7
:1024F000A4E78020A6E7C046BF81FFFFF7B5837A37
:10250000050001930023C1728372052924D80800B5
:10251000FDF76EFE03475E6B65723B4B1B780093C5
:102520003A4B009A8A4217D09D4219D10E26009B41
:10253000364C013B994217DB334A354813700E2263
:10254000DBB25A430023A118A35212184B808B8090
:102550008B710B8153800B73019804F0AFFFF7BDB3
:102560000131C9B20E33DCE735004F1C7D437143A6
:10257000635B65196352AB786418A370EB78691DCF
:10258000E3702B79601D23710222FEF771F92B890C
:10259000F9B22381AB7AA372EB7AE3722B7B2373BC
:1025A000C5E701F023FC2A790021A8702888FFF7ED
:1025B00031FF01F01BFCAB7800219843E8702888BC
:1025C000FFF7D6FE2A00134904F06CFFA872C3E798
:1025D00001212888FFF7CCFE2A000F49F4E72A7969
:1025E00028880221FFF716FFB6E702212888FFF7A7
:1025F000BFFE2A000949E7E703212888FFF7B8FE54
:102600002A000749E0E7C046F412002068120020C3
:1026100070120020252600084B26000833260008EB
:10262000BB26000810B508000421FFF767FF002053
:1026300010BD10B50C0004212000FFF75FFF200043
:102640000021FFF7B9FE002010BD70B508880C000E
:102650000121FFF7A3FE002823D001F0C7FB0021D2
:1026600005002088FFF79AFE002820D0A078A84215
:102670001DD001F0D1FB01F085FC227901212088D9
:10268000FFF7C8FE01F0B2FBA3785D406840C0B21E
:1026900001F0C2FBE07801F0B7FB01F073FC00230E
:1026A000638020000021FFF729FF002070BD227900
:1026B00020880121FFF7AEFEF3E770B50C0001F0B2
:1026C00095FB002105002088FFF768FE002824D034
:1026D000A078A84221D001F09FFB01F053FC2279A1
:1026E00001212088FFF796FE01F080FBA3785D4072
:1026F0006840C0B201F090FBE07801F085FB01F08A
:1027000041FC0023638020000021FFF755FE2000DC
:102710000021FFF7F3FE002070BD227920880121FF
:10272000FFF778FEEFE7F0B5157B85B007000E00E8
:102730001400002D49D1D07A052800D990E11388E2
:10274000FDF760FD06000F005A009D00DC00EB0065
:10275000BB4200D084E14B79002B00D180E1012104
:1027600046E04A790192BB4238D1151E2DD1022193
:102770002000FFF7C3FE20880121FFF70FFE051E92
:1027800000D06BE101F032FB290006002088FFF742
:1027900005FE00281CD0A078864219D001F03CFB31
:1027A00001F0F0FB227901212088FFF733FE01F0D0
:1027B0001DFBA3785E407040C0B201F02DFBE078B5
:1027C00001F022FB01F0DEFB6580280005B0F0BDC2
:1027D000227920880121FFF71DFEF6E7019B002BDF
:1027E00000D13DE1601D0222FEF742F8032127815E
:1027F0002000FFF783FEE8E74E799F4206D1002EC6
:1028000000D12DE1137901331371A8E70125002EC2
:10281000DBD029001800FFF7C1FD002823D001F00C
:10282000E5FA002107002088FFF7B8FD002820D036
:10283000A07887421DD001F0EFFA01F0A3FB2279C6
:1028400029002088FFF7E6FD01F0D0FAA3785F4069
:102850007840C0B201F0E0FAE07801F0D5FA01F07A
:1028600091FB0023638000212000FFF747FE350025
:10287000ABE7227920880121FFF7CCFDF3E7BB42CB
:1028800004D14D790521002D9FD1B1E792794B7884
:102890009A4213D162790B789A420CD14F79002F6A
:1028A00009D104212000FFF729FE01212000FFF7B4
:1028B00083FD3D0089E79A4200D1D1E07379002B76
:1028C00000D1CDE004212000FFF718FE00212000F8
:1028D000FFF772FD012323733788002606F0B0F955
:1028E00002ABDE8002AB58801F80022302AAFF33B6
:1028F0009380100000F03CFE267366E701259F429E
:1029000000D062E74D79002D00D05EE703211279F7
:102910003800FFF77FFD29006AE79F4238D14B79E5
:10292000002B00D19CE001F061FA00210600208814
:10293000FFF734FD002825D0A078864222D001F090
:102940006BFA01F01FFB227901212088FFF762FD5D
:1029500001F04CFAA3785E407040C0B201F05CFA1E
:10296000E07801F051FA01F00DFB002363800021B3
:102970002000FFF721FD01212000FFF7BFFD00230C
:10298000237122E7227920880121FFF743FDEEE73A
:102990009179727891421BD161793278914215D147
:1029A0007779002F12D1180022790221FFF732FD2A
:1029B00020000121FFF700FD208822790321FFF785
:1029C00029FD39002000FFF799FD72E7914247D0B9
:1029D0007379002B44D001F009FA00210700208808
:1029E000FFF7DCFC002833D0A078874230D001F01C
:1029F00013FA01F0C7FA227901212088FFF70AFDB6
:102A000001F0F4F9A3785F407840C0B201F004FA15
:102A1000E07801F0F9F901F0B5FA002363802000B5
:102A20000021FFF7C9FC00212000FFF767FD348873
:102A300006F006F9002202ABDA8002AB1C80588057
:102A4000022302AAFF339380100000F091FDBCE640
:102A5000227920880121FFF7DDFCE0E7019DB4E643
:102A60000125B2E6F8B505000E0000240E271B4B29
:102A70001B78A34217D8707900282DD018496918FF
:102A800007290FD8174F00213C008B4218D10E2187
:102A90005943124A013365521370280062183100FD
:102AA000FFF741FEF8BD3A0062430E4B3100D218E9
:102AB0002800FFF738FE0028F4D00134E4B2D6E74E
:102AC0000E22524294460E37BC4462461288AA42F5
:102AD000E8D00131C9B2D8E70120E3E7F4120020C1
:102AE000BF81FFFF6812002010B5FFF7BBFF10BDCC
:102AF00010B50124A0420CD804290AD80E2A08D8FF
:102B00000F234B434B2141435B189B18A340024AC0
:102B10009C5A200010BDC04618BE0008411E174B2D
:102B2000FF39020010B50020994218D88023802177
:102B300080245B00890013401140E400581E83414B
:102B4000D0040DD51801002901D0202318432242BA
:102B500001D040231843130501D58023184310BD2D
:102B6000D8B2002901D002231843224201D0042305
:102B700018431305F3D50823F0E7C046FF1E0000F5
:102B800010B50C00FFF7CAFFA04710BD0300E03BE3
:102B900010B50400072B02D90549002800D10549CA
:102BA0002000FFF7EDFFE0B200F0DEF910BDC046F7
:102BB000B53500087531000810B50400C0B200F04A
:102BC00053FA2300E03B072B02D90449002C00D123
:102BD00003492000FFF7D4FF10BDC046C5350008EB
:102BE0008531000870B505000C00FFF7CFFF002C01
:102BF00003D12800FFF7E0FF70BD0A20013C07F079
:102C00009AF9A4B2F3E710B55021392800D0002179
:102C1000FFF7E8FF10BD0120704710B5FFF7FBFF7D
:102C200010BD0120704710B5FFF75EFF10BD704763
:102C300010B5FFF7FCFF10BD13B5114B00901B78CA
:102C40000191002B16D16B465B79002B0DD0002A29
:102C50000BD000F0F7FD04000100009800F0CAFD61
:102C60002000009901F092FC16BD009800F0D6FDFE
:102C70000400F5E7009800F0E5FD0099F2E7C04692
:102C8000FD12002010B50400638800881B040A00B0
:102C90001843A188FFF7D0FF10BD10B50400012133
:102CA000FFF7F0FF2100FFF7B8FF10BD10B50400DB
:102CB0000021FFF7E7FF2100FFF7BAFF10BD012059
:102CC000704710B5FFF7FBFF10BD000010B5040002
:102CD00000F096FC2000FFF7F4FF024807F02BF904
:102CE00010BDC046C409000010B50120FFF7EEFF7B
:102CF00005F0D2FF10BD10B50020FFF7E7FF05F08B
:102D0000DBFF10BD70B505000121FFF7BBFF6B793C
:102D10000400002B01D003F075FC2900200005F011
:102D20006BFB002801D1002070BD29002000FFF7B7
:102D30007AFF0028F7D02900200003F0A3FE002826
:102D4000F1D02900200005F053FA0028EBD029002B
:102D5000200004F02BFD0028E5D02900200004F01D
:102D6000FBFC0028DFD02900200003F069FC0028CC
:102D7000D9D02900200005F091FA0028D3D06B7932
:102D8000002B0AD01C4B9C422BD00AD81B4B9C42D8
:102D900029D015D8013B9C420FD02800FFF741FFF6
:102DA000C2E7174B9C4224D0164B9C421ED0164BB8
:102DB0009C42F2D101F06CF9EFE7FFF795FFB2E723
:102DC0000122124912480B78DC07E40F54401440EA
:102DD00093431C430C70144000D00E4802F008F9D5
:102DE000A1E701F05FF9FFF786FF9CE701F044F9E6
:102DF000D3E701F052F9D0E7037C0000017C00002A
:102E00005B7C00005C7C00005A7C0000D413002036
:102E100055BF000844BF000810B505F084FE00202F
:102E200003F00AFE00F03CF810BD10B503F000FD01
:102E300000F03BF805F07CFE10BD332203010009D1
:102E40001843C0B283008010104093430343DBB2A9
:102E5000223258005B10904313401843C0B27047B1
:102E600070B50500C0B2FFF7E8FF0400280AFFF7BD
:102E7000E4FF2402204380B270BD012070477047F8
:102E800070B5051CFFF7F9FF041E02D0281CFFF7E0
:102E9000F6FF200070BD704710B5FFF7F1FF10BDC1
:102EA00010B50020FFF7F8FF10BD10B505F02CFCA1
:102EB000FFF7F2FF10BD000010B505F025FC0C4B2C
:102EC00004001A78824211D0187005F081FE0522A4
:102ED000084B1860084B1B781340934203D1210024
:102EE000064802F085F82000FFF7D6FF10BDC04667
:102EF000FC120020F8120020D413002067BF000845
:102F00001FB50B0ADBB200900191002B01D000F03D
:102F10009FFF0E2300226B441A80009B02AC029399
:102F20006B469B88A380DBB2934204D10298616810
:102F300000F0E6FE1FBD2000FFF7AFFE0028F5D130
:102F4000F8E7037910B5012B02D1008800F09CFC52
:102F500010BD10B5002904D004F080FD04F050FE2F
:102F600010BD04F0D5FDF9E710B5041E13D082287A
:102F700012D105F0D3FB83070DD4392005F020FDD5
:102F800001F000F8C820800006F0D5FF392005F0D8
:102F900033FD00F0F7FF10BD83280ED105F0BEFB16
:102FA000C307F8D4532005F00BFD00F0EBFFFA2027
:102FB000800006F0C0FF5320E9E784280ED105F019
:102FC000ADFB4307E7D4472005F0FAFC00F0DAFF39
:102FD000FA20800006F0AFFF4720D8E7031FDBB2DE
:102FE000A02B11D804F074F90028D4D1200005F0EA
:102FF0005FFC002804D0200005F0FEFC00F0C2FFBA
:10300000200005F0DDFCC4E703002033DBB2072B12
:1030100007D8072301201C40A040C0B200F0ECFEFE
:10302000B7E703005B33DBB2022B04D80C4AD05C59
:1030300005F0E6FBAFE703005833DBB21A2B05D8E7
:10304000084A5B00985A05F0F5FBA4E70300333308
:10305000DBB2122B9FD804F001FD04F0D1FD9AE7FA
:1030600004CD000808CD000810B500280FD0822834
:103070000ED105F053FB830709D5392005F0A0FCDC
:1030800000F080FF392005F0B7FC00F07BFF10BD99
:1030900083280AD105F042FBC307F8D5532005F079
:1030A0008FFC00F06FFF5320EDE784280AD105F074
:1030B00035FB4307EBD5472005F082FC00F062FFAB
:1030C0004720E0E7031FDBB2A02BDCD9030020334D
:1030D000DBB2072B07D80723034001209840C0B27A
:1030E00000F092FED1E703005B33DBB2022B03D882
:1030F000002005F085FBCAE703005833DBB21A2B2A
:1031000003D8002005F096FBC1E703003333DBB2A0
:10311000122BBCD804F0FCFC04F072FDB7E70000F1
:1031200070B504000D00FFF71FFF0120002D0ED029
:103130000A4A002328000021FDF704FA0023084A68
:1031400080185941FA2200239200FDF7DBF906F0BE
:10315000F2FE2000FFF788FF70BDC0461027000078
:10316000E703000010B55021392800D00021FFF7F7
:10317000D7FF10BD10B5002803D000F03DFE00F0D1
:1031800001FF10BD10B5002803D000F03DFE00F097
:10319000F9FE10BDF0B585B00C1C87790290457919
:1031A00000F01AFE23043F0901900393002828D061
:1031B0000195002D25D023041B0E0F2219009143E9
:1031C00040290FD0E1B20A0000202032D2B2019093
:1031D000072A16D91F229343202B03D1012910D986
:1031E00087420ED00022AA4B01925B785B0708D57C
:1031F000022000F003FF00F0EFFD01234340DBB2AB
:1032000001932304180F0B283FD8FCF7FBFF0C0099
:103210000C005E005E00BC00D1003E003E00D60007
:103220003001430143010F22230426051B0E360FF4
:10323000934300D03601E4B2002D12D0002E0BD003
:1032400023002033DBB23000072B01D9002C05D13D
:1032500000F0D2FD00F096FE200057E000F0E8FDFF
:10326000F8E72000FFF700FF002E0ED023002033E8
:10327000DBB23000072B01D9002C02D100F0C4FDD5
:1032800001E000F0DDFD00F07DFE039B1B0F083B1D
:10329000032B03D805F038FAFFF7FEFD019B002B46
:1032A00011D000F091FD012318400CD1029B587100
:1032B00000F084FD00F02EFA029800F059F900F0B9
:1032C0007DFD00F033FA05B0F0BD0F222304260582
:1032D0001B0E360F9343202B00D03601E4B2002C96
:1032E00006D0012C36D0002D40D0002F1CD0B3E7E3
:1032F000674B5B785B0713D4002D0AD0002E04D0F7
:10330000300000F079FD00F03DFE0020FFF72CFEBC
:10331000BBE72800FFF7A8FE002EB6D03000ADE7CF
:10332000002D0BD0002F03D13000FFF723FFACE7B7
:10333000012FAAD1300000F0ABFDA6E7002FA4D1E9
:103340003000FFF71FFF300000F0B0FD300000F04C
:103350008BFD9AE7002D02D0052F96D8E4E7042FC5
:1033600000D992E73000FFF70DFF8EE7002FF9D06C
:103370000120392C01D1C820800006F0DCFD20009E
:10338000FFF772FE81E72005800F0AD0012800D0E8
:103390007BE70020854201D0A005800D05F04AFAA8
:1033A00073E7002D01D0A005800D05F029FA6CE728
:1033B000E0B22900FFF7CDFD67E723049B019B0FD7
:1033C00025D1002D00D060E72106490F8900200794
:1033D000C9B2000F8840C2B21020204003D00F3382
:1033E0008B40DB43D8B22405A40F1043022C08D035
:1033F0000AD8012C02D000F05FF946E700F052F93C
:1034000043E700F063F940E700F047F93DE7A20524
:10341000920FD1B20123002D1DD01340002B00D1FB
:1034200033E72106490F89002007C9B2000F884001
:10343000C2B21020204003D00F238B40DB43D8B210
:103440002405A40F1043022C0BD00DD8012C05D05D
:1034500000F08EF919E749080B40DFE700F07EF92C
:1034600013E700F08FF910E700F040F90DE7E6B23E
:103470002405240F002D03D0200000F04BF953E762
:103480003000FFF77FFE200000F050F9FDE6C04657
:10349000F42A0020E6B23000F03804283ED8FCF7C9
:1034A000A7FE032611182200002D07D0042F00D9F3
:1034B000EBE6E004C00E00F045F9E6E6052F00D982
:1034C000E3E6F6E7E004C00E002DDDD100F022F9BE
:1034D000DBE6002D04D0E004C00E00F014F9D4E6C1
:1034E00000F00CF9D1E6194B5B785B0704D4E004DB
:1034F000C00E002DC8D0E9E7002D05D0E004C00EB5
:10350000032100F059FDC0E6012000F077FD012FF6
:1035100000D8BAE6022000F071FDB6E6002D06D014
:10352000002F01D03000F1E6E004C00ECEE7002FFE
:1035300008D00120392E01D1C820800006F0FBFC04
:1035400030001DE7E004C00E9EE7C046F42A0020CC
:1035500070B504004079218800F0A0F9051C00F046
:103560001BF900F099F8291C2000FFF713FE70BD2D
:10357000037910B50400002B11D0FFF7C3FB00281E
:103580000ED100F029FC002809D06379002B06D069
:10359000074B5B785B0702D5022000F02FFD10BDC2
:1035A0002000FFF7D5FF2000FFF780FBF7E7C046BC
:1035B000F42A002010B5002803D000F039FC00F0F8
:1035C000E1FC10BD10B5002803D000F039FC00F07C
:1035D000D9FC10BD10B5002005F012F9002005F04F
:1035E00029F900F035FC00F0CDFC04F07DFB04F07F
:1035F00007FB10BD10B505F01BFAFFF7EBFF10BD80
:1036000010B500F00FFCFFF7F5FF10BDC3B20004CA
:10361000020F10B500200B2A08D801210C0094409D
:1036200022000C4C224202D152060BD410BDF02BCA
:103630000DD003D8E7229A424041F7E7F43B5842C5
:103640005841F3E70800E72BF0D9F13BF7E7080012
:10365000ECE7C0460C0C000003000279002010B516
:10366000824204D0188800F00FF9FFF7CFFF10BD99
:1036700082B002B0704782B002B07047704710B598
:10368000FFF7FCFF10BD000010B5FFF7F8FF014B7E
:10369000187010BDFE120020704710B5FFF7F4FF40
:1036A00010BD000010B5034B1B781843FFF7ECFF6B
:1036B00010BDC046FE12002010B5034B1B78184009
:1036C000FFF7E2FF10BDC046FE12002010B5034B0D
:1036D0001B785840FFF7D8FF10BDC046FE120020EF
:1036E000704710B5FFF7FCFF10BD000010B5FFF7E5
:1036F000F8FF014B187010BDFF12002010B500201C
:10370000FFF7F4FF10BD0123834010B5D8B2FFF7D7
:10371000EDFF10BD0123834010B5034A1078184314
:10372000C0B2FFF7E3FF10BDFF120020012383406A
:1037300010B5034A10789843FFF7D8FF10BDC04674
:10374000FF1200200123834010B5034A107858402F
:10375000C0B2FFF7CBFF10BDFF12002010B5034B26
:103760001B781843FFF7C2FF10BDC046FF120020B0
:1037700010B5034B1B781840FFF7B8FF10BDC046CB
:10378000FF12002010B5034B1B785840FFF7AEFF27
:1037900010BDC046FF1200207047032370B50125FD
:1037A000CC086343D21807232E0019408E40002115
:1037B000F6B20300CB40545C2B405B426340334085
:1037C0006340535401310329F3D170BD30B5072450
:1037D000032300220440C0085843012509181000A3
:1037E0008B5CE3402B40934001321843C0B2032A64
:1037F000F6D130BD07B5030401AA10801B0E0800E6
:10380000042B08D812780E2A05D80F21594389189D
:10381000014AFFF7C2FF07BD0013002007B50304EC
:1038200001AA10801B0E0020042B08D812780E2A43
:1038300005D80F30584302498018FFF7C7FF0EBD67
:1038400000130020F7B5032401270D4B01AE308093
:103850001A780C4B1B781A430092009BE5B2234167
:103860003B4204D1013CF8D200252800FEBD31685E
:10387000280000F09BFE80B20128F3D0F5E7C04697
:10388000FF120020FE12002007B501AB188001983E
:10389000FFF7D8FF019900F089FE0EBD37B50F4B39
:1038A00001AC1B782180002B03D00198FFF7ECFFBF
:1038B0003EBD00280CD02068FFF7C4FF05000100C2
:1038C0002068FFF797FF0199280000F06FFEEFE7EF
:1038D0002068FFF7A3FF0500F5E7C046FD120020B2
:1038E00030B5012425008D402900250095402A008F
:1038F0009C400A4303000100D2B21140A34391420D
:1039000001D10443E3B2180030BD000010B504003B
:103910001300044A10780A002100FFF7E1FFFFF7C7
:10392000E5FE10BDFF12002070B507250B4B1C787B
:103930000B4B1B78A34200D170BD0A4BE200D15A59
:103940009B1858889A8800040843D98801340904D0
:103950001143FFF790FE2C40EAE7C04667130020B2
:103960006613002026130020064B10B558881A88CD
:10397000D988000410439A8809041143FFF77BFE9D
:1039800010BDC0461E1300200F221B48F8B58379D6
:1039900093432BD14379002B28D0184B05881A78F4
:1039A000174B46881C7807239C46164FA2421DD011
:1039B000D300FB181979002919D01988A94216D10A
:1039C0005979002913D15988891B89B2C7290ED882
:1039D0000F241021827922400A4382719A79224071
:1039E00011439971FFF7C4FDFFF79EFFF8BD6346D1
:1039F00001321A40DAE7C0461E1300206713002088
:103A00006613002026130020F0B50C4B0C4A1B78DF
:103A100016780C4CB34202D100221000F0BDDD003C
:103A2000621957788F4205D12D5D854202D15279B6
:103A3000002AF2D1072201331340EBE7671300207D
:103A40006613002026130020F0B504008BB0062278
:103A5000010004A8FCF70CFFA84D22792B796779A7
:103A6000002B1CD10126002A00D17FE0002F11D0AD
:103A70002000FFF7F1FD061E0CD0082221002800CF
:103A8000FCF7F6FE2800FFF75CFAFFF77DFFFFF773
:103A90006BFF6BE02000FFF76BFD012666E02378EB
:103AA000009363780193638802936B8802996E791F
:103AB000CB1A9BB2002E00D1DAE0C72B00D998E0D8
:103AC000002A53D02B880F200393AB7921881A004A
:103AD00082435CD1039A91420ED1002F50D1102223
:103AE00003401343AB71FFF73FFF2800FFF740FD92
:103AF000AB79A3713E0039E0002F41D101990098C4
:103B0000FFF782FF01990098FFF77EFF051EF1D1B4
:103B1000009A04AB1A70019A5A700498FFF7B4FE29
:103B20000304190F0B2914D801228A40C02109016E
:103B3000C0B20A421DD10C210A420FD1920708D00F
:103B40001B011B0F01D000280FD02030C0B2072866
:103B50000BD92000FFF70CFD350006E00F221B0EED
:103B60001A42F2D0A3799343EFD12E0030000BB06C
:103B7000F0BDEF28F9D90F30C0B20228E9D8F4E738
:103B800001235E4A91790B4393710026EEE7039A75
:103B900091420BD1002F09D1A3712000FFF7E8FC5F
:103BA000082221002800FCF763FE70E72000FFF7E1
:103BB00053FD002800D16DE7002F00D16AE74F4B7D
:103BC0009A791F2A0BD906A8198801800299418089
:103BD0001B798271037100234371FFF7C9FC08222E
:103BE00021004648FCF744FEFFF7CEFEFFF7BCFE7F
:103BF00053E7AB790F2118008843039017D1009940
:103C000004AB197001991A71597002995F7159804A
:103C100005990498FFF72CFD2800FFF7A9FC08225E
:103C200003992800FCF778FEFFF79EFEADE7002A17
:103C30009CD02988228891420BD1002F09D12000E5
:103C4000A371FFF795FC082239002800FCF764FEF9
:103C50008CE72000FFF700FD002800D11AE7002FB5
:103C600000D117E7254B08A89A791F2AB7D9ABE7E7
:103C7000C72B2FD80126002A00D177E73E1E00D19E
:103C800008E72A8823889A4217D1AA79D3070ED445
:103C90000F2113008B430AD0A271F02B00D17CE7D7
:103CA000D3B21A09013212010B40134374E7082200
:103CB00021001248FCF7DCFD58E72000FFF7CCFCA0
:103CC00000288CD10123AA7920001343AB71FFF7A0
:103CD0004FFC4BE7009904AB197001991A715970A8
:103CE00002995F71598004980599FFF7C1FC082279
:103CF00031002800FCF710FEC9E6C0461E13002064
:103D0000F0B585B06C46009020006160FFF79CFE26
:103D1000264E071E264D0CD02379002B02D003CC53
:103D2000FFF7A9FC072728783378834225D105B00F
:103D3000F0BD220002AB9C4603CA03C32379002BCB
:103D4000F0D007233078441C1C402B789C420AD0CA
:103D5000184BC000181808226146FCF789FD347022
:103D6000FFF7E2FDDEE7FFF74BFC082239001248BF
:103D700037702F70FCF7D0FDD4E70E4CC000201830
:103D8000FFF762FE0028D2D02B78DB001A5BE41824
:103D90006088E188A3880004090419431043FFF7F1
:103DA0006AFC2B7801333B402B70BCE76613002084
:103DB00067130020261300201E130020014B1878E3
:103DC000C0087047B8130020024B1878072318402A
:103DD0007047C046B8130020034B187807231840DB
:103DE000431E9841C0B27047B8130020014B1878A9
:103DF0007047C046BB130020024B1A78104318705E
:103E00007047C046BB130020024A137883431370E7
:103E10007047C046BB130020014B18707047C04666
:103E2000BB1300200022014B1A707047BB13002007
:103E3000024B1A78104318707047C046BC1300201C
:103E4000024A1378834313707047C046BC130020A6
:103E50000022014B1A707047BC130020704710B548
:103E6000FFF7FCFF10BD000010B5054A137818429B
:103E700004D0834318001370FFF7F1FF10BDC04654
:103E8000B9130020704710B5FFF7FCFF10BD00000C
:103E9000010010B5044A13781940814203D003434E
:103EA0001370FFF7F0FF10BDBA13002010B5054ADC
:103EB0001378184204D0834318001370FFF7E3FF10
:103EC00010BDC046BA13002010B5044B1A78002A62
:103ED00003D000201870FFF7D6FF10BDBA130020E2
:103EE00010B5094B1C78094B1B781C43084B1B78F9
:103EF000002B06D01C4304F0B7FC002801D0FFF7CC
:103F0000E3FF200010BDC046BB130020BC130020FF
:103F1000BA13002070B50B4C2568FFF7E1FF28703D
:103F20002468094D082229002000FCF779FC0028AC
:103F300007D0082221002800FCF79AFC200004F09A
:103F4000F1FB70BD640C00209013002070B50B4C89
:103F50002568FFF7C5FF68702468094D20222900F5
:103F60002000FCF75DFC002807D02022210028005B
:103F7000FCF77EFC200004F005FC70BD680C0020FE
:103F80009813002010B5074B1B78002B06D0064B6A
:103F90001B787F2B02D9FFF7D9FF10BDFFF7BAFFBF
:103FA000FBE7C046C80C0020F42A0020704710B57B
:103FB000FFF7FCFF10BD0000094B10B55B785B07F5
:103FC0000AD5084CC3000B432370FFF7A3FB2078EE
:103FD000C008FFF7ECFF10BDFFF79CFBFBE7C046F6
:103FE000F42A0020B8130020002010B5024B1870EE
:103FF000FFF7DDFF10BDC046B813002010B5094A19
:1040000013781900814311704A070AD1994208D0E8
:10401000054B5B785B0704D5C808FFF787FBFFF704
:10402000E3FF10BDB8130020F42A00200F4A70B53A
:10403000537804005907C90F814215D001000125AA
:1040400004202940890083430B435370108800F0FB
:1040500052F80220FFF7D2FF054B1B782B4203D00A
:104060002100044800F0C4FF70BDC046F42A0020BF
:10407000D413002077BF0008044B10B558780123F3
:104080004007C00F5840FFF7D1FF10BDF42A0020B1
:1040900010B50120FFF7CAFF10BD10B50020FFF7D3
:1040A000C5FF10BD10B5002001F0D8F9024900206D
:1040B00001F010F810BDC046FFFF000010B5002051
:1040C00000F0ADFF034B020000209A4201D104F042
:1040D0003AF910BDE5FE000010B5022000F093FF94
:1040E00010BD10B5032000F08EFF10BD10B50420E8
:1040F00000F095FF10BD10B50100042000F0EAFFAC
:1041000010BD10B501000F2000F0F0FF10BD10B57C
:104110000100132000F0EAFF10BD10B50020FFF7EA
:10412000F6FF10BD10B50020FFF7EBFFFFF7F5FF1E
:1041300010BD000007B5002001F090F91F490020D4
:1041400000F0C8FF0021022000F0B8FF01211C4B45
:104150000320197000F0B2FFA0210420490100F0F3
:10416000B9FF0021062000F0A9FF0021072000F080
:10417000A5FF0021082000F0B9FF0021232000F056
:104180009DFF00210C2000F099FF00210D2000F080
:1041900095FF002300221721009201936846083200
:1041A00000F06FFF00211F2000F0A0FF002004F0AE
:1041B000DEF804F0FEF8FFF7B5FF07BDE5FE0000EE
:1041C000FE12002010B5FFF7B5FF10BD10B50100BD
:1041D0000E2000F073FF10BD73B504F031FD094CE3
:1041E0000500238883420CD06B4600261E8004F015
:1041F00027FD6B469E80588000980199FEF780FE4F
:10420000258073BDC813002010B504F0E1FC024BFB
:104210001860024B186010BDC0130020C4130020AA
:104220007047704710B5FFF7FCFF10BD704710B521
:10423000FFF7FCFF10BD01207047000010B50548D6
:1042400000F090FA01F006F9FFF7EAFFFFF7EAFF46
:1042500010BDC046459100080120704710B5FFF71A
:10426000FBFF10BD7047704710B5FFF7FBFFFFF76E
:10427000FAFF10BD10B5FFF721FF002801D1FFF7AD
:10428000A1FFFFF729FF084B1870FFF72FFF074B1F
:10429000188002F08AFDFFF724FFFFF7FEF9044BB8
:1042A0001878FFF71EFA10BDD4130020F42A00205E
:1042B000FF12002010B504F087FC04F089F800F02C
:1042C00025FBFFF7D7FFFEF7E6FD02F0A5FC02F0A5
:1042D000AFFA02F03BF8FFF7AAFF10BDF0B587B0C8
:1042E000FFF7A9FF00280BD1FFF776FF02F08BF94B
:1042F00002F07AFC03F022FDFEF7DEFD07B0F0BD10
:1043000000F01CFB294E0024350020000134E4B2EB
:104310002F8800F03FFA052C44D002358742F4D0B4
:10432000234B1B789B0701D500F03AFAFFF796FF65
:1043300000240390200000F02DFA338807009842F3
:1043400028D043409BB20293002301250193029B96
:104350001D4216D0039B002B13D0019A04AB1A7098
:104360005C7004F06DFC012204AB1A7158802B00C4
:104370003B405A1E934104AA537104980599FEF7D5
:10438000BFFD019B6D000133DBB20193ADB20F2B7A
:10439000DDD137800134E4B20236052CCAD1FFF7F3
:1043A00033FFA3E78742BBD19EE7C046CA13002074
:1043B000D413002070B500F003F9624B040098425A
:1043C0002AD88023DB01984200D36CE0DF2819D87B
:1043D000CD2854D2A7280AD8A5284AD2012819D016
:1043E00003B2002B01D0042814D2002412E0C2280A
:1043F000FBD85834E4B2544B6400E05A8824E401FA
:10440000044307E0514B984200D989E0FF283BD88C
:10441000E728EAD8201C70BD4D4B984212D84D4B6E
:1044200098424ED24C4B984246D81F3B984269D393
:104430000323C4B2A0081C40023BA3404001184320
:10444000464C1EE0464B984207D81F3B984243D348
:104450001F2020400002434CD2E7434B984246D9EC
:10446000424B9842C1D80402F82040010440404821
:10447000C6E75B343F4AE4B2145D1C43CAE7A020A0
:10448000C0010443A4B2C5E7000AC0B200F01CF9A1
:104490000500E0B2F82400F093F864012D022540F5
:1044A0000543ACB2B6E7C0B200F08AF8F0231B01B6
:1044B0001C4004433048E4E71F20204000022F4CFA
:1044C0009EE70323C4B2E0061C40023BA340400F1A
:1044D000400118432A4CD4E70323C4B2E0061C4031
:1044E000023BA340400F40011843264CC9E71F2060
:1044F000204000F0E9F8F824000264012040013473
:10450000FF347DE71F20204000F0DEF8E405240F93
:104510002402C30600D5000100B220431A4CB0E7C4
:10452000C004C00E00F0D0F80500E0B2F82400F09E
:1045300047F864012D02254001340543FF342C4324
:10454000A0E7C046FF4F000042CD0008FF1F00005B
:104550005F520000405200001F520000008DFFFF1C
:104560009F520000F4A00000BF520000DF52000084
:10457000F0A000003ECD000800A0FFFFF1A0000069
:10458000008CFFFF008AFFFF0090FFFF07B50B04C0
:1045900001AA1180190E0023042905D812780E2AC9
:1045A00002D803F025F8030018000EBD07B501ABD3
:1045B00019800199FFF7EAFFFFF7FCFE0EBD00002E
:1045C00010B582280CD014D8312866D004D82928F8
:1045D0005AD02A2867D010BD352850D03928FAD1B2
:1045E000384B1A78920767D15B781B07F3D52920DF
:1045F000F1E7E32827D00BD8E02816D0E228EAD14B
:10460000304B1B785A07E6D5E320DB0619D4E2E7E6
:10461000E62826D0E72829D0E428DCD1294B5A788F
:104620009207D8D51B78E720EFE7264C01212278A6
:1046300013000B402FD164780C42CCD0E320D2067B
:10464000C9D50020C7E71F4A1378590732D45278DA
:10465000D20731D4102213405A4253415B421840D2
:10466000B9E7184B1B781A07DDD4B4E7154A13785D
:10467000190723D452789207ECD5E420ABE7114B0D
:104680001B789B06A7D5B2E70E4B1A78920617D473
:104690005B781B079FD539209DE70A4B1B785B068B
:1046A00099D52A2097E7074B1B785B0600D492E741
:1046B000312090E7E2208EE7E0208CE7E6208AE7D1
:1046C000352088E7F42A0020244A30B511784B07BA
:1046D0000DD514230340043B5C425C411823034086
:1046E000083B5D426B419C4201D00C2358400B07B4
:1046F0000DD514230340143B5C425C411823034056
:10470000183B5D426B419C4201D00C2358405278CB
:10471000D3070DD511230340013B5C425C411823B4
:104720000340083B5D426B419C4201D00923584045
:1047300093070DD511220240113A53425A411823D2
:104740000340183B5C4263419A4201D00923584020
:10475000CB0601D51823984330BDC046F42A00206B
:1047600000207047014B18607047C0466C0C002059
:1047700010B5024B1B68984710BDC0466C0C00205A
:10478000704710B5FFF7FCFF10BD704710B5FFF77D
:10479000FCFF10BD014B4000185A7047002B002051
:1047A00010B50D4800F024FC002421000B4800F057
:1047B0001FFC0B4800F01CFC0A4A6300D05AFEF7AD
:1047C0004FFB0100084800F013FC0134074800F0DB
:1047D0000FFC052CE9D110BD8CBF0008A3BF000859
:1047E000A8BF0008002B0020ABBF0008DFCC0008EA
:1047F00010B5012005F09FFB10BDC046C046C04665
:10480000C046C046C046C046C046C046C046C04678
:10481000C046704710B5FFF7EBFF10BD10B572B67C
:104820000F23020001211A4091409843202206F0F4
:1048300078FB62B610BD000070B50B4C2500143536
:104840002068431C01D0FFF7E9FF0434AC42F7D1E4
:10485000064C25003C352068431C01D0FFF7DEFFE5
:104860000434AC42F7D170BDB4CD000878CD000857
:10487000F7B5244B8A00D358019000915A1C40D0C0
:1048800072B601250F242E001F0023409E40A7432F
:1048900031002A003800B6B206F043FB7E8362B6D0
:1048A000FFF7ABFF00262000AC4617490A6800233B
:1048B000571C0AD0130083431B690240D34067464C
:1048C0001A0000233A4200D12BB2013C1E436D0076
:1048D000E4B2B6B2ADB20431002CE7D1009B9A002D
:1048E000084BD058431C01D0FFF798FF31004B1EF6
:1048F00099410098C9B2FFF78DFF009B019A5B00B8
:104900009E52F7BDB4CD000878CD000810B50A243A
:10491000FFF792FF220000210648FBF7FDFF22006F
:1049200000210548FBF7F8FF052000F039F8FFF7F4
:1049300028FF10BD002B0020F62A002030B585B0DE
:104940000A22002101A8FBF7E7FF0024210001341F
:1049500001A8E4B2FFF78CFF052CF7D10E4C0A2218
:1049600001A92000FBF75CFF05006B1E9D41EDB225
:10497000002804D00A2201A92000FBF779FF2B00B0
:1049800005220649200000F00DF80400FFF7FEFEA6
:10499000200005B030BDC046F62A0020002B0020C4
:1049A00070470000F7B50700019114001E1E134D5B
:1049B00007D001232B7004F00BF9114B1860002075
:1049C000FEBD2B780093002BF9D00D4B186804F036
:1049D00043F90428F3D96400220039000198FBF759
:1049E0001FFF002805D0220039000198FBF740FF87
:1049F000009E002330002B70E2E7C046D513002054
:104A0000D813002010B5FFF769FC10BD10B504F0F5
:104A1000A7F804F0E1FBFFF711FC04F0E1FBFFF75E
:104A200049FC04F0F7FB04F0FDFBFFF7EBFF04F09B
:104A300021FC04F0A9FB04F095FB02F049FDFFF70F
:104A400013FCF0E70300DA680800511C10B5D960C8
:104A500019698A4204D21C68002C02D05968A04708
:104A600010BD9B689854FBE7F7B51F00C3680400AE
:104A70000093089B019115009B070DD0002D0DD1CF
:104A8000089B9B0715D4F7BD20212000FFF7DAFF14
:104A90000136BE42F8D3F1E71600FAE7019B013D6B
:104AA000595D2000FFF7CEFFE8E720212000FFF747
:104AB000C9FFE368009A9B1ABB42F6D3E3E7000004
:104AC000F0B58FB0049003921D00169C002923D1ED
:104AD00023051DD4302206AB1A70102301319C43EC
:104AE0000A00A30744D40123159A2340002A0BD0BF
:104AF0000A00002B3CD0039A002A02D10C32144247
:104B000002D0159A013A15920A0006A8302628E02C
:104B1000102DE5D1AC43E3E76123A20600D5412384
:104B20000F000026DBB20A3B059329003800FBF793
:104B3000F9FB059BCAB2D3188446DBB2092902D817
:104B400013003033DBB2082004AA1218711C9355ED
:104B5000BD42C5D80E002029C2D06746E5E71654ED
:104B60000132002B04D0159F974201D9202AF6D19B
:104B700006A8302301E083540132149E964201D9E5
:104B8000202AF8D1082D03D1914201D210239C4351
:104B9000274B1C4225D0230537D4002A35D0149B3F
:104BA000934202D0159B93422FD191423CD2013ABD
:104BB000002A2AD0102D25D0022D0DD18A4223D8CB
:104BC00001E0022D08D11F2A26D8622302E05823D3
:104BD0001F2A21D8835401321F2A1DD83023835421
:104BE00001321F2A18D8039B002B03D02D23835496
:104BF000013211E0630701D52B23F8E723070BD51A
:104C00002023F4E7914202D2013A102DD9D1A30614
:104C1000DDD478231F2ADDD901000094159B049868
:104C2000FFF722FF0FB0F0BD102DC5D1EFE7C04652
:104C30001020000010B5FFF79BFD10BDF0B5070078
:104C400015008BB00591059B1978002911D13B689F
:104C5000002B0BD13A69002A08D0B968002905D089
:104C6000FB689A4200D8531E0022CA54F8680BB061
:104C7000F0BD059B002001330593252900D0DBE022
:104C800008242439059B059A1B7801322B2B16D05A
:104C90000BD8202B15D0232B15D01900303909291A
:104CA00033D800230A24049315E02D2B04D0302B95
:104CB000F3D108430592E5E702231843FAE70423FA
:104CC000FBE72043F6E71023F7E7049B05916343D6
:104CD000303BD3180493059B1A78591C1300303BC2
:104CE000092BF2D9059B1B782E2B4ED18022120165
:104CF0001043059A059B5278013311003039092978
:104D000039D80A220026944613E0002104912A2B68
:104D1000E8D108CD04938B4204DA02231843049BA4
:104D20005B4204930592DDE763465E432300303E19
:104D300096191A785C1C110030390929F4D91978B0
:104D40005A1C6C292BD023D8682930D06A2936D038
:104D50001A001178531C0593692937D063D862294A
:104D600000D126E12ED8252966D0582964D12023E8
:104D70001843103B3AE000262A2AE0D140CDF34305
:104D8000DB171E40059B0233D9E7059B0026D6E7BB
:104D9000742901D07A29DBD180239B000BE059785C
:104DA0006C29F9D1C022D20010439A1CD1E759785E
:104DB000682902D080231843CBE7C022F4E7802380
:104DC000DB00F8E7632969D0642935D18023DB0152
:104DD0001843782938D05829C9D06F2900D1E6E086
:104DE000622900D1E5E010239843063B020501D576
:104DF000012290438022D200024041042ED5002A95
:104E000000D020E72C1D296882051FD5CD17029000
:104E10000498CA0F49196940019000963800FFF7BD
:104E20004FFE25000FE7732959D009D86F2900D10B
:104E3000BDE0702900D1A3E03800FFF703FE02E7D0
:104E40007529D0D07829F7D11023CFE7420601D5B4
:104E500049B2DBE70206D9D509B2D7E7002A00D06C
:104E6000F1E60C2104008C43A4462C1D810506D5D7
:104E7000614602910499009601912968CEE729685C
:104E8000420607D5C9B262460292049A0096019280
:104E90000022C3E70206F6D589B2F4E70224012610
:104EA00004400AD1012304E020213800FFF7CAFDA5
:104EB0003300049A5E1C9A42F6D802CD3800C9B27B
:104EC000FFF7C0FD002C00D1BDE6049BB34200D823
:104ED000B9E620213800FFF7B5FD0136F5E72B00D4
:104EE00004CB06920793002A08D10090049B062267
:104EF00031493800FFF7B8FD079DA4E6331E00D105
:104F00002E4B069A1500D3182A78002A01D0AB42FE
:104F100014D1069BED1A80231B010340089302D095
:104F2000B54200D9350002230340099304D1049B04
:104F30006C1CAB4204D82500069C0BE00135E3E76E
:104F400020213800FFF77EFD2500F0E7380001340E
:104F5000FFF778FD2178002906D0089B002BF5D0BB
:104F6000069B9B199C42F1D1099B002BC4D0049B4A
:104F7000AB42C1D920213800FFF764FD0135F6E7C7
:104F80000F4C02CD0443002907D100940A230522C7
:104F90000C493800FFF768FD55E60A230294019397
:104FA0000096063300223800FFF78AFD4BE60823FF
:104FB0001CE702231AE7C046B1BF0008FFFFFF7FCE
:104FC00001200000B8BF00087FB5074B0A0001931D
:104FD0000023029303930493044B010001A805935B
:104FE000FFF72CFE07B000BD354C0008FFFFFF7F28
:104FF0000FB407B504A901C90191FFF7E5FF03B09C
:1050000008BC04B0184713B56B46DC1D0023010033
:1050100001222000237000F025FA207816BD13B578
:105020006B469C1D0023010002222000238000F01B
:1050300019FA208816BD002307B50100042201A833
:10504000019300F00FFA01980EBD07B56B46D971B8
:10505000073301000122180000F03FFA07BD07B531
:105060006B46D980063301000222180000F035FAA1
:1050700007BD07B504220191010001A800F02DFA37
:1050800007BDF8B51400D31D6A46DB08DB00D31A50
:1050900000AF9D460500220068460E0000F0E2F9D0
:1050A000220069462800FBF7BBFB002804D0220041
:1050B0003100280000F011FABD46F8BD70B50D00B2
:1050C0000400FFF7A0FFA84203D029002000FFF74B
:1050D000BCFF70BD70B50D000400FFF7A0FFA84233
:1050E00003D029002000FFF7BAFF70BD70B50D0096
:1050F0000400FFF7A0FFA84203D029002000FFF71B
:10510000B8FF70BD10B500F099FA094C094800F0DD
:1051100051FA094800F04EFA200000F04BFA074817
:1051200000F048FA00F09AFA054B1C6010BDC0462A
:1051300000F0010800E0010800E8010800F801089B
:10514000DC230020012398430C4B70B5C5182B8835
:105150000B4A002693420FD10A4A0536145AE443FB
:10516000A4B29C4208D000F069FA2100280000F0A7
:1051700041FA060000F072FA300070BD00E001084C
:10518000FFFF0000DC13002070B50526FFF7BAFF13
:105190000B4C00F053FA0B4D2988002907D0C94366
:1051A000200089B200F026FA052800D00600064B40
:1051B000023402359C42EFD100F050FA300070BD4D
:1051C00000E00108DC13002000F00108F8B51B4BDB
:1051D0001C5A012C0FD80222194D63031D43ADB296
:1051E000184B194E9B1A32689A420AD9FFF7CCFF26
:1051F00007003800F8BDE025803880B204222D0277
:10520000EEE740082843070000F018FA306839003C
:10521000831C336000F0EEF9E02307001B029D427F
:1052200009D1E143306889B2831C336000F0E2F9B0
:10523000052800D0070000F011FADAE7DC1300209F
:105240000080FFFF00000208DC23002070B50D4C39
:105250000D4B226805009A4204D9FFF795FF040020
:10526000200070BD00F0EAF9084B2068595D2D025E
:105270002943831C89B2236000F0BCF9040000F0CC
:10528000EDF9EDE7DC230020FFFF0108DC1300202F
:10529000224BF0B51D00224A224811880232C94330
:1052A000198002338242F8D10123C02680279C4610
:1052B000F601FF0113881C498B4208D019B21B4C20
:1052C000002909DB190A6B540232A242F2D980206C
:1052D000174B40011A60F0BD19003140B14212D1A4
:1052E000901CA04218D851880200C94389B20029F5
:1052F000EAD0104A5B001340020080330E4883421C
:10530000E2D8E952E0E73B42DED160465913014062
:1053100008485B000340F1E70200D8E7DC130020F7
:1053200000E0010800F00108FFFF0000FFFF010896
:10533000DC230020FE3F0000FF0F000010B5FFF748
:10534000E1FEFFF7A5FF10BD0E4B10B504000720CE
:105350009C4210D80C4B0020E3181A788A420AD0DD
:1053600019702000FFF7EEFE002804D17F2C03D82F
:105370002000FFF76BFF10BD012320009843FFF7CB
:1053800025FFF8E7FF0F0000DC130020F8B51C4BE9
:1053900004000E00072598420ED8063D05400DD0AA
:1053A000C9B2FFF7D1FF01340500310AA0B2FFF7FF
:1053B000CBFF052800D005002800F8BD114BC3180D
:1053C0001F88B942F8D01980FFF7BCFE051EF3D143
:1053D0007F2C11D8FAB2F3B205359A4203D02000DF
:1053E000FFF734FF05003F0A360AB742E4D0013424
:1053F000A0B2FFF72BFFDCE72000FFF7E7FEDAE7BC
:10540000FF0F0000DC130020034AFF23904201D865
:10541000024B1B5C18007047FF0F0000DC130020DC
:10542000084B98420BD8084BC318C20705D5074A4A
:10543000125C18781202104370471888FCE7044881
:10544000FAE7C046FE0F0000DC130020DD13002049
:10545000FFFF000010B5FFF71BFF10BD10B5FFF7F1
:105460006DFF10BDF0B5050085B00C00161E0BD009
:10547000CB0709D54B1C471C88B20193FFF7C4FF2B
:1054800028703D00019C013E01232F002B40029318
:10549000A31901960393019B012B0BD873085B00A2
:1054A000E418ED189E4203D0A0B2FFF7ADFF2870BC
:1054B00005B0F0BD039B019A981A80B2FFF7B0FFC8
:1054C000029B002B05D13880019B0237023B0193E0
:1054D000E1E73870000A7870F6E7F7B505000C00D0
:1054E000161E0BD0CB0709D5471C3D004B1C01787D
:1054F000A0B20093FFF728FF009C013E01232F007C
:105500002B4001930096009B012B0AD873085B0087
:10551000E418ED189E4203D02978A0B2FFF714FFDB
:10552000F7BD019B002B0BD13988009BA019C01A35
:1055300080B2FFF72BFF009B0237023B0093E2E7AC
:105540007B7839781B021943EFE700000122094BF1
:105550001000D96811420CD1D9689018490708D4B5
:10556000D9688018C90604D4D8681040434258410D
:10557000043070470020024037B50400FF25FFF7D4
:10558000E5FF012811D1002C01D105303EBD0023DB
:1055900001930195019B002B03D1FFF7D7FF013C3D
:1055A000EFE7019B013B0193F4E7002CEED10620CD
:1055B000ECE7000070B506000C48FFF7DDFF05289A
:1055C00013D102250A4C094823692B432361402348
:1055D0006661226913432361FFF7CEFF062802D0DC
:1055E0002369AB4323613423E36070BDFF0F0000E8
:1055F00000200240F8B5F8231B06C2180D4B060028
:105600000F0007209A4214D81830FFF7B5FF05287D
:105610000FD10125084C1A3023692B4323613780B1
:10562000FFF7AAFF062802D02369AB432361342386
:10563000E360F8BDFEFF070000200240044B1A693A
:10564000120603D5034A5A60034A5A607047C0469F
:105650000020024023016745AB89EFCD8023024A39
:1056600011690B431361704700200240F0B5050A31
:1056700085B0030CEDB2019003AED8B2002D0FD16E
:10568000002901D0284B185C30707070B0707278AF
:105690003078B37812021B041043184305B0F0BDF4
:1056A00001AB1F7884B2002901D01F4B1C5C06207F
:1056B000FF217843FAF73AFE55235B4243437F00CC
:1056C000FF1803235F43FF21FFB23B00CF1B4A1BA0
:1056D0006B437D431B122D12CB1A491B624363435C
:1056E000614312121B120912D2B2DBB2C9B2E4B288
:1056F000062814D8FAF77CFD04060C0A0F130400E0
:1057000023000C0034707370B270C0E721001C00DD
:1057100013000A00F6E70B0021001400F9E721004E
:1057200014001A000B00EDE798CF00081FB5012107
:10573000FFF79CFFFF210300020A0A400B40120200
:105740001343000C034A084013400004184305B0FB
:1057500000BDC046FFFF00FF704700001FB5FFF708
:10576000E5FFFF210300020A0A400B401202134327
:10577000000C034A084013400004184305B000BD64
:10578000FFFF00FF13B51C006B4659709A7018702C
:105790000098FFF7E3FF020403021B0E120E627073
:1057A0002070A37013BD0000084A0321137818006D
:1057B000884304D10B4001310B4313707047AB2B6E
:1057C000FCD90B4058214942F6E7C046102B002077
:1057D00010B50820FFF72FFC04002320FFF713FC6F
:1057E0000100200010BD70B505000C00FFF7DCFFC4
:1057F00029000820FFF77AFCE1B22320FFF75EFCC6
:1058000070BD000010B5034B18685968FFF7EBFF37
:1058100010BDC046102B0020054B064A10B51A607B
:1058200000221A7118685968FFF7DDFF10BDC046E5
:10583000102B00200500FFFF70B501241F4D2B78B1
:10584000234239D01E48FFF7D3FB2B78234233D0B5
:105850001C4E1D483178C907C90FFFF7C9FB2B78CB
:10586000234229D0317819488907C90FFFF7C0FBB7
:105870002B78234220D0317815488908FFF7B8FBF0
:105880002B78234218D071781248FFF7B1FB2B78A0
:10589000234211D0B1781048FFF7AAFB2B7823429E
:1058A0000AD0F1780D48FFF7A3FB2B78234203D0F1
:1058B00031790B48FFF79CFB70BDC046D413002024
:1058C000BEBF0008102B0020D7BF0008F4BF00089F
:1058D00014C000082FC0000849C0000863C00008B9
:1058E0007DC00008034B1A78D307DB0F181E00D0C9
:1058F00090087047102B0020024B1878C007C00F8B
:105900007047C046102B002010B5064A1379022BB1
:1059100001D801331371002803D010685168FFF7D4
:1059200062FF10BD102B002010B50120FFF7ECFF27
:1059300010BD000010B5064A1379002B01D0013BC1
:105940001371002803D010685168FFF74CFF10BD99
:10595000102B002010B50120FFF7ECFF10BD000058
:10596000014B18797047C046102B002070B50B4CC6
:105970000B4D207100290BD020686168FFF733FFC1
:105980002B78DB0703D521790648FFF731FB70BD83
:105990002B78DB07FBD501000348F6E7102B00202E
:1059A000D413002014C2000835C2000810B500212D
:1059B000FFF7DCFF10BD0000014B58787047C04670
:1059C000102B0020014B98787047C046102B002008
:1059D000014BD8787047C046102B002073B5104B90
:1059E000104D1B786978DB07DB0F0F4809D00323C4
:1059F0002A7889B25343C0180C4B5B6801939847CF
:105A000073BD0322AC78EE7862438218A642EED9C9
:105A10000134537013709370E4B20332F6E7C0465A
:105A2000102B0020730C0020182B002010CF000832
:105A30000B4B70B51B78DB070AD50A4B0A4E9C78D6
:105A4000DD78032363439B19AC4202D3FFF7C6FF03
:105A500070BD0134587019709A70E4B20333F3E7E3
:105A6000102B0020730C0020182B0020074B13B5BF
:105A70001B78DB0708D501AC2300FFF783FEA27873
:105A800021786078FFF7D4FF13BDC046102B0020AB
:105A900010B504000379054AD25C054B9978587813
:105AA000FFF7E4FF23790133237110BD0FCE000807
:105AB000102B002010B50400044B0079DA78997897
:105AC000FFF7D4FF23790133237110BD102B002081
:105AD00073B5154D04002878002807D1FF2201AEC8
