:020000040800F2
:100000000004002091010008758900089301000890
:100010009301000893010008930100089301000870
:100020009301000893010008930100089301000860
:100030009301000893010008930100089301000850
:100040009301000893010008930100089301000840
:100050009301000893010008930100089301000830
:1000600093010008ED9600081994000839940008DF
:10007000930100089301000893010008819B000888
:10008000A59D000893010008930100089301000852
:1000900093010008930100089301000893010008F0
:1000A00093010008930100089301000893010008E0
:1000B000930100089301000893010008F59D0008D2
:1000C00072B6244880F30888234880F30988022008
:1000D00080F31488BFF36F8F08F040F907F0AEFD8E
:1000E0001E481F491B4A914202DA08600431FAE7B0
:1000F0001C49194A914202DA08600431FAE71A49A8
:100100001A4A1B4B9A4204DA086810600431043220
:10011000F8E700201749184A914202DA08600431D2
:10012000FAE708F01FF908F01AF9144C144DAC4224
:1001300003DA216888470434F9E703F0E1FF114C42
:10014000114DAC4203DA216888470434F9E70F49BE
:100150000847000000040020000C002055555555AC
:10016000000000200004002020BB0008000C00203C
:10017000D8100020D810002010290020C00000084E
:10018000C0000008C0000008C0000008618300082B
:1001900096E700F000F8FEE7F0B544464D465646B7
:1001A0005F46F0B46B46CB60C3689D46F0BCA0468A
:1001B000A946B246BB46F0BD62B6281CA047002047
:1001C00008F052FBFEE708F0B5FA024A024B136052
:1001D000FEE7C04604ED00E00000008002B4714676
:1001E00049084900095649008E4402BC7047C04680
:1001F00002B4714649084900095C49008E4402BCBA
:100200007047C04603B47146490840004900095A86
:1002100049008E4403BC7047002243088B4274D3CC
:1002200003098B425FD3030A8B4244D3030B8B42F7
:1002300028D3030C8B420DD3FF22090212BA030C00
:100240008B4202D31212090265D0030B8B4219D3E1
:1002500000E0090AC30B8B4201D3CB03C01A524101
:10026000830B8B4201D38B03C01A5241430B8B4249
:1002700001D34B03C01A5241030B8B4201D30B0332
:10028000C01A5241C30A8B4201D3CB02C01A524159
:10029000830A8B4201D38B02C01A5241430A8B421C
:1002A00001D34B02C01A5241030A8B4201D30B0205
:1002B000C01A5241CDD2C3098B4201D3CB01C01A1F
:1002C000524183098B4201D38B01C01A5241430929
:1002D0008B4201D34B01C01A524103098B4201D317
:1002E0000B01C01A5241C3088B4201D3CB00C01A84
:1002F000524183088B4201D38B00C01A52414308FC
:100300008B4201D34B00C01A5241411A00D2014620
:10031000524110467047FFE701B5002000F0F0F8A9
:1003200002BDC0460029F7D076E7704703460B436D
:100330007FD4002243088B4274D303098B425FD3DE
:10034000030A8B4244D3030B8B4228D3030C8B420A
:100350000DD3FF22090212BA030C8B4202D31212F0
:10036000090265D0030B8B4219D300E0090AC30BC5
:100370008B4201D3CB03C01A5241830B8B4201D372
:100380008B03C01A5241430B8B4201D34B03C01A5B
:100390005241030B8B4201D30B03C01A5241C30AD3
:1003A0008B4201D3CB02C01A5241830A8B4201D344
:1003B0008B02C01A5241430A8B4201D34B02C01A2E
:1003C0005241030A8B4201D30B02C01A5241CDD2D3
:1003D000C3098B4201D3CB01C01A524183098B421E
:1003E00001D38B01C01A524143098B4201D34B0107
:1003F000C01A524103098B4201D30B01C01A52416A
:10040000C3088B4201D3CB00C01A524183088B42F0
:1004100001D38B00C01A524143088B4201D34B00D9
:10042000C01A5241411A00D201465241104670474B
:100430005DE0CA0F00D04942031000D34042534050
:1004400000229C4603098B422DD3030A8B4212D310
:10045000FC22890112BA030A8B420CD38901921142
:100460008B4208D3890192118B4204D389013AD07F
:10047000921100E08909C3098B4201D3CB01C01A54
:10048000524183098B4201D38B01C01A5241430967
:100490008B4201D34B01C01A524103098B4201D355
:1004A0000B01C01A5241C3088B4201D3CB00C01AC2
:1004B000524183088B4201D38B00C01A5241D9D2DA
:1004C00043088B4201D34B00C01A5241411A00D25B
:1004D0000146634652415B10104601D34042002B57
:1004E00000D54942704763465B1000D3404201B5D6
:1004F000002000F005F802BD0029F8D016E770478B
:100500007047C046002B11D1002A0FD1002900D11D
:10051000002802D00021C943081C07B4024802A1E8
:100520004018029003BDC046D9FFFFFF03B46846E0
:1005300001B5029800F030F8019B9E4602B00CBC59
:100540007047C046F0B5CE46474615042D0C2E0028
:1005500080B50704140C3F0C9946030C7E435D43A1
:10056000674363437F19340CE4199C46A54203D9C1
:1005700080235B029846C4444B4643435143250CB9
:1005800036046544360C2404A4195B19591820005C
:10059000C0BCB946B046F0BDF0B557464E464546DC
:1005A000DE46E0B5040083B00D00924699468B42CA
:1005B00030D82DD04946504600F0C0F8290006003A
:1005C000200000F0BBF8331A9846203B9B4633D4FA
:1005D0005A465346934042461F00534693401E00DE
:1005E000AF423AD8AF4200D17BE05B46A41BBD418D
:1005F000002B00DA78E0002200230092019301230F
:100600005A4693400193012342469340009328E0C9
:100610008242CFD900220023009201930C9B002B31
:1006200001D01C605D600098019903B0F0BCBB462E
:10063000B246A946A046F0BD424620239B1A524628
:10064000DA40414613004A468A40170042461F439B
:10065000534693401E00AF42C4D9002200230092AB
:1006600001934346002BD9D0FB079C466146720894
:100670000A437B0846460EE0AB4201D1A2420CD8A9
:10068000A41A9D41012024196D410021013E241826
:100690004D41002E06D0AB42EED9013E24196D41EA
:1006A000002EF8D1009801995B4600196941002B92
:1006B00025DB2B005A464446D3402A00E2401C006A
:1006C0005B461500002B2BDB26005F46BE40330047
:1006D00026004746BE403200801A994100900191A1
:1006E0009CE7A342B9D880E74246202300219B1A09
:1006F0000022009101920122DA40019283E74246F2
:1007000020239B1A2A0046469A402300F340444681
:1007100013432A00E2401C005B461500002BD3DA8D
:100720002023424626009B1ADE402F00B446464650
:10073000B74066463B003343CAE7C04610B50029C0
:1007400003D100F007F8203002E0081C00F002F8A6
:1007500010BDC0461C2101231B04984201D3000C8C
:1007600010391B0A984201D3000A08391B09984224
:1007700001D30009043902A2105C40187047C0463A
:10078000040302020101010100000000000000005A
:1007900010B5062000F016FA012009F065FEC046EB
:1007A00070B5CDB2830734D0531E002A1BD0027817
:1007B000AA4219D0032404E0013B14D30278AA42D0
:1007C00012D001302042F7D1032B0ED8002B0AD0D3
:1007D0000278AA4208D0C31802E00278AA4203D0E5
:1007E00001308342F9D1002070BDFF220C06240C99
:1007F000114021430C04084E0C4302680749624033
:10080000511891433142E3D1043B0430032BF4D817
:10081000DCE71300D8E7C04680808080FFFEFEFE44
:1008200030B5032A0CD903000B439B071CD1036886
:100830000C68A34218D1043A04300431032AF6D8D4
:10084000551E002A0ED002780C7894420ED1013544
:100850000123013904E0C25C0133CC5CA24205D122
:10086000AB42F8D1002030BD551EECE7101BFAE773
:10087000F0B5C64600B50F2A43D90B000326034343
:100880001E400C000300002E40D11500103D2D0924
:10089000AC462D01A846804400E03B00676825680F
:1008A0005F60E7681D60DF601F00A56810379D600E
:1008B00010344345F1D165460F230C2401352D0139
:1008C000491913404519144223D08C59AC510436B0
:1008D0009C1B032CF9D80324043B9B0801339B0089
:1008E0002240ED18C918561E002A07D0002300E048
:1008F0002300CA5C5C1CEA549E42F9D180BCB84615
:10090000F0BD0500561E002AF0D1F7E7561E05007F
:10091000ECE71A00F6E7C046F0B5050083074AD0B9
:10092000541E002A44D0CEB20300032202E0013557
:10093000013C3DD301332E701342F8D1032C2FD943
:10094000FF220A40150215432A0415430F2C35D9FE
:100950002700103F3F093E01B4461E001A00103622
:100960006644156055609560D5601032B242F8D18A
:100970000F260C2201373F012640DB1937002242A7
:1009800017D03E1FB608B400A4461A001C1D6444CC
:1009900020C2A242FCD103240136B6009B193C4080
:1009A000002C05D0C9B21C19197001339C42FBD12F
:1009B000F0BD3400F4E714000300BFE72700E0E7D0
:1009C000114B70B51C680500A06B002803D00023F4
:1009D0000561436170BD183000F07EF9A063002806
:1009E0000CD00A4B01220360094B4360094B836022
:1009F0000B238381002302614361E8E7064B002259
:100A00004221064800F024F9000C00200E33CDAB43
:100A100034126DE6ECDE050050BA000868BA000832
:100A2000184B70B51D68AC6B002C0ED02069616945
:100A3000154A164BFFF786FD0122002312184B4181
:100A4000580040082261636170BD182000F044F92D
:100A5000041EA8630FD00E4B012203600D4B4360B0
:100A60000D4B83600B2383810023026143610748A0
:100A70000A4A064BE6E70A4B00224E21094800F0DD
:100A8000E7F8C046000C00202D7F954C2DF45158FE
:100A90000E33CDAB34126DE6ECDE05002E7F954CA7
:100AA00050BA000868BA000810B58021040000F0B0
:100AB0007DF96064002807D002000023803208C05E
:100AC0009042FCD1002010BD01204042FBE7C0460F
:100AD000426C10B50023002A01D0180010BDFFF7AA
:100AE000E3FF0300F9E7C04670B505000C001600EF
:100AF0001F2907D8436C002B09D0A4001B191868C4
:100B00001E6070BD1623036001204042F9E7FFF725
:100B1000CBFF002801D16B6CEFE701204042F0E7EA
:100B200070B505000C001F2920D8436C002B0ED097
:100B30008A009B181A68002A09D0012A14D0511C77
:100B40000ED00021200019609047002070BD2800C1
:100B500000F07AF822000100280000F061F8F5E7C3
:100B6000162303600120F1E70020EFE7162303605E
:100B700001204042EAE7C04670B505000C001F297D
:100B80001DD8436C002B10D0A2009B181A68002AB5
:100B900009D0511C11D0012A0DD00021200019606C
:100BA0009047002070BD0120FCE7FFF77DFF002883
:100BB00005D16B6CE8E70320F4E70220F2E701209F
:100BC0004042EFE710B5034B01001868FFF7A8FF9C
:100BD00010BDC046000C002010B5044B0A001B6875
:100BE00001001800FFF780FF10BDC046000C002078
:100BF000054B10B51B6800205A6C002A00D010BDB0
:100C00001800FFF751FFFAE7000C002010B5034B66
:100C100001001868FFF7B0FF10BDC046000C0020AF
:100C2000002370B5074C050008001100236009F08F
:100C300023FC431C00D070BD2368002BFBD02B602D
:100C4000F9E7C046E828002010B509F01DFC10BDEA
:100C500030B51C000A4B05001B6885B0D868002A17
:100C60000AD0084B0292019300912B002200064902
:100C700000F020F8FFF78CFD044B1A00F2E7C046A5
:100C8000000C00209CBA0008ACBA0008A8BA000802
:100C9000130010B50022FFF7DBFFC0460CB400B50F
:100CA00083B004AB04CB019300F01EF903B008BC81
:100CB00002B018470EB400B582B003AB010005487E
:100CC00004CB0068019300F00FF902B008BC03B038
:100CD0001847C046000C002010B5034B01001868EF
:100CE00000F064F810BDC046000C002010B5034BA6
:100CF0000100186800F004F810BDC046000C002088
:100D000070B50500002915D00C1F2368002B27DBC8
:100D1000280001F099FA244B1A68002A05D0A24253
:100D20000CD921686018824224D0626028001C60BF
:100D300001F092FA70BDA34203D81A005368002B49
:100D4000F9D111685018A0421BD027D8216860182B
:100D5000834207D063605460280001F07DFAE9E720
:100D6000E418D5E718685B688446614421606360D5
:100D70005460F1E710685268844661442160626003
:100D8000D4E720680918501811608342E4D118682C
:100D90005B688446614411605360DDE70C232800E2
:100DA0002B6001F059FAC5E7D8100020F8B50323ED
:100DB000CD1C9D43083506000C2D2AD20C25A942D6
:100DC00029D8300001F040FA2A4F3A68002A0AD0A8
:100DD00013685B1B04D441E023685B1B1FD5220012
:100DE0005468002CF8D17B68002B3DD029003000DE
:100DF00009F01EFB431C2AD00323C41C9C43A042C1
:100E000005D0211A300009F013FB431C1FD02560C8
:100E100010E0002DD3DA0C2300203360F8BD0B2B3B
:100E200005D86368A2421DD0536003E0140023601C
:100E3000E4182560300001F00FFA200007220B3083
:100E4000231D9043C21AE9D01B1AA350E6E70C23D6
:100E50003000336001F000FA0020DFE70B2BE5D80B
:100E6000140053683B60E5E70021300009F0E0FA28
:100E70007860BBE7D8100020936810B5013B936001
:100E8000002B04DA9469A34207DB0A2905D0136812
:100E9000581C10600800197010BD00F0BFFBFBE784
:100EA000F8B506000F00002B0DD01400D51802E095
:100EB0000134AC4207D021783A003000FFF7DCFF64
:100EC000431CF5D1F8BD0020FCE7C046936810B57F
:100ED0001400002B02D10020536010BD00F0FAFE78
:100EE0000023A3606360F8E7F0B5DE464E46574640
:100EF0004546E0B59FB003908B4691461C00002804
:100F000004D083690293002B00D1CEE0BF4B9B45F8
:100F100000D1D0E0BE4B9B4500D1D0E0BD4B9B45FE
:100F200000D16FE15A465B46526E9B89D20702D4CC
:100F30009A0500D45FE11B0700D443E15B461B69BF
:100F4000002B00D13EE1002306AD6B6120336B76B0
:100F50001033AB762F3B98465B4602934B461B788B
:100F60000594AD4FB346002B00D188E0252B00D16E
:100F700026E14E4603E0252B00D1A4E0260073783D
:100F8000741C002BF7D14B46E31A9A4677D0534690
:100F90004A4602990398FFF783FF431C6FD06B69A1
:100FA00053446B617378002B69D0012200235242B5
:100FB0006A60443201342B60EB60AB60AB54AB65CC
:100FC00006E04346C01B834034002A6813432B606D
:100FD000217805223800FFF7E3FB661C0028F0D1DA
:100FE0002B68B246DA0602D543222021A9541A07FB
:100FF00002D543222B21A95421782A2969D1059AA7
:10100000111D12680591002A00DAB5E0EA606178E6
:10101000A61C2E2900D175E0804B032218009946AA
:10102000FFF7BEFB002800D18AE04B46C01A4023E0
:1010300083402A68317813432B600622731C78485A
:1010400099462976FFF7ACFB002800D183E0754B69
:10105000002B00D189E005AB0093029A724B290066
:10106000039800E000BF83465B46013307D06B69FD
:101070005B446B614B461B78002B00D076E7029BEC
:101080009B465B6EDB0700D597E05B469B899A0524
:1010900000D48EE05B0600D5A7E068691FB0F0BC05
:1010A000BB46B246A946A046F0BD00F0EDFC574B4A
:1010B0009B4500D02EE7039B5B689B4632E7039B72
:1010C0009B689B462EE74B46E31A9A4600D16CE795
:1010D0005DE70A00303AA246092A9AD8EB68180060
:1010E00001E03400013683001B1831785B0098184A
:1010F0000A00303A092AF4D9B246E860A61C2E2923
:1011000000D089E7534659782A293BD1059B1A1DFF
:10111000059252469178D61C022294461B68E244FE
:101120006B60002B00DB77E701235B426B603B4B7E
:10113000032218009946FFF733FB002800D074E71C
:10114000B14656463178062235482976FFF728FB06
:10115000002800D07BE705AB0093029A324B2900B0
:10116000039800F007F983467EE70722059B0733C3
:101170009343083305937AE75242EA60022213430D
:101180002B6044E70A000023303A6B601800092AFC
:1011900001D92DE01E0083001B1871785B009818A0
:1011A0000A00303A731C092AF4D99A46023668605C
:1011B00032E75B46986D00F077FF5B469B8969E7F5
:1011C0004C46F2E65946039800F09EFA002800D1FA
:1011D000B9E65B465B6EDB0707D45B469B899B05E4
:1011E00003D45B46986D00F05FFF0120404255E755
:1011F000B246013610E75B46986D00F04DFF5B4646
:101200009B8998E6039BDB689B468BE6D4A4000889
:10121000B4A4000894A40008DCBA0008E4BA0008EA
:10122000E8BA000800000000A10E000810B5040094
:101230001300034A10680A002100FFF755FE10BD95
:10124000000C0020F0B54F464646D646C0B51F00FC
:10125000089B914698468A680B6906000C009342E9
:1012600000DA13004A4613604322A25C002A02D02F
:101270004A460133136023689A065AD54B461B68C9
:1012800006209A1C4B461A6023681900184208D1A0
:10129000E16800258A1A19218A461900A244002A09
:1012A0003FDC4323E35C5A1E93418A060AD5302073
:1012B000E1184331087045215A1C615CA218433281
:1012C000023311702200390043323000C047431C02
:1012D00019D006232068A26821690340042B30D06E
:1012E0008A423ADD00239946521A91441A34002565
:1012F00002E001354D4530DA01232200390030008B
:10130000C047431CF5D101204042E0BCBA46B1467B
:10131000A846F0BD4B46E2681B680135D31AAB42C4
:1013200020DD0123524639003000C047431CF1D173
:10133000E9E706221A4212D04323E35C5A1E934186
:10134000C0E74B46E0681B68C31AD843C017184073
:1013500081468A42C8DC002BC8DC0020D5E74A461B
:10136000126895E743232168E35C5A1E93418A067D
:101370009DD4A7E7F0B557469A4643239C464E4670
:101380004546DE468C446346E0B587B003930B7E4A
:10139000914680460C00109A6E2B00D1D8E000D800
:1013A00071E0732B00D11AE100D881E0752B00D1D8
:1013B000FFE0782B00D00BE10B68782045216054CA
:1013C00094498B46116840C91160180603D4580629
:1013D00001D53604360CDA0702D5202213432360E8
:1013E0001027002E00D1C2E043230022E25463689C
:1013F000A360002B00DAC5E004222168914321603C
:10140000002E00D083E0002B00D0BDE0039D082F0C
:1014100000D18CE0039B5B1B2361534605AA00931C
:1014200021004B464046FFF70DFF431C22D02369A5
:101430002A0049464046D047431C1BD022680598E5
:10144000E368920700D47FE01A1A002A00DC7BE0F0
:1014500026000025193606E0E368059801351A1ABA
:10146000AA4200DC70E00123320049464046D047E2
:10147000431CF1D10120404207B0F0BCBB46B2464C
:10148000A946A046F0BD632B00D184E01FD8002BF5
:1014900069D0582B00D09BE0452163545E492368F6
:1014A0008B46116840C91160180600D48FE792E797
:1014B0006F2B7ED0702B00D08AE020230968782023
:1014C0000B4345212360605452498B467AE7642BD5
:1014D00001D0692B7CD111682368081D10601D069E
:1014E0004AD50A681600002A03DB4B4B0A279B46A5
:1014F0007DE743222D21A15462687642A260002A32
:1015000002DB042293432360434B0A279B46039D3F
:1015100000E0060039003000FEF704FF5B465B5C2C
:10152000013D2B70BE42F4D2082F00D072E7236831
:10153000DB0700D46EE763682269934200DD69E748
:101540003023013D2B7065E7984295DA180093E748
:10155000136809681D1D606915601B680E0601D4BB
:1015600049064BD418600023039D236155E72023CF
:1015700022689A43226037E75D06B2D500228E5E6C
:101580003200B0E7002EC2D15B4625001A78422314
:101590004235E2543BE713682500191D11601A68B3
:1015A0004223E254413B4235236143230022E2546B
:1015B00033E7116820680D1D1560060601D440064A
:1015C0001ED40E686F2B1DD0134B0A279B460BE7CA
:1015D00042222500A354012342352361E5E7136825
:1015E000191D11601D68626800212800FFF7D8F8F6
:1015F00000280BD0401B60602061D6E71880B2E75E
:101600000E88DFE7044B08279B46EDE66068206103
:10161000CBE7C04604BB0008F0BA0008F8B50500E7
:101620000E001400002802D08369002B29D02D4B16
:101630009C422BD02C4B9C4246D02C4B9C424ED0F3
:10164000A369A360A3891B0726D52369002B23D098
:10165000FF22F7B2616916402268D31A99422ADD47
:101660000133A1680139A160511C216017706269C2
:101670009A422BD0A389DB0701D50A2E26D0300051
:10168000F8BD00F001FA174B9C42D3D16C68A369F6
:10169000A360A3891B07D8D42100280000F034F8E8
:1016A000002819D1FF222369F7B261691640226828
:1016B000D31A9942D4DC2100280000F045F9002813
:1016C0000AD122680123CCE7AC68B9E721002800E1
:1016D00000F03AF90028D2D001267642CFE7EC6834
:1016E000AEE7C046D4A40008B4A4000894A400083F
:1016F00010B5044B0A001B6801001800FFF78EFFAD
:1017000010BDC046000C00203E4B70B51D680600A1
:101710000C00002D02D0AB69002B1BD03A4B9C4231
:101720001ED03A4B9C424CD0394B9C4260D00C238B
:10173000E25E93B2190719D52169002921D0DA0791
:101740002ED50023A360636900205B42A3610029BA
:101750002ED070BD280000F097F92B4B9C42E0D1B1
:101760006C680C23E25E93B21907E5D4D90641D523
:101770005B0728D4216908231343A3819BB2002966
:10178000DDD1A0228020920080001A408242D6D073
:101790002100300000F0B2FCA3892169DA07D0D41F
:1017A00000229B0700D46269A26000200029D0D1EA
:1017B0000C22A35E1A06CCD540221343A381013824
:1017C000C7E7AC68B3E7616B00290AD02300443354
:1017D000994204D03000FFF793FA0C23E25E002315
:1017E000636324239A430023216963602160C2E775
:1017F000EC689CE709233360402301201A43A2814F
:101800004042A6E7000C0020D4A40008B4A40008BD
:1018100094A40008F0B5C64600B58B8980460C003C
:101820001A0745D44A68002A63DDE56A002D3BD0DB
:1018300042464146166800220A60216ADA045CD4F6
:10184000012300224046A847431C61D0A389E56AD2
:10185000216A5B0706D56368C01A636B002B01D051
:10186000236CC01A002302004046A847431C46D1FF
:1018700043461B680C21625E002B56D01D2B01D005
:10188000162B5DD100236360236923604346616B9F
:101890001E60002908D023004433994202D04046FC
:1018A000FFF72EFA00236363002080BCB846F0BD2A
:1018B0000E69002EF8D00A680E60951B00229B0767
:1018C00000D14A69A260002D04DCEDE736182D1A1C
:1018D000002DE9DD2B003200216A4046A76AB84797
:1018E0000028F3DC40220120A38940421343A38156
:1018F000DBE70A6C002A98DCD6E7606DA9E70023D5
:10190000636023692360A389DB04BFD56065BDE7FD
:1019100043461B68002B99D01D2B0DD0162B0BD0E6
:101920004022A3891343A381BFE763602369236037
:10193000D304ABD56065A9E7434600201E60B4E739
:1019400040231A43A281B0E70B6970B505000C0073
:10195000002B23D0002802D08369002B22D0194B02
:101960009C421DD0184B9C421FD0184B9C4226D045
:101970000C22A35E002B11D0626ED20701D49B050E
:1019800019D528002100FFF745FF636E0500DB072E
:1019900002D4A3899B050AD5280070BD0025FBE76A
:1019A0006C68E5E700F070F8D9E7AC68E0E7A06D97
:1019B00000F07AFBF0E7A06D00F06EFBE1E7EC6869
:1019C000D6E7C046D4A40008B4A4000894A4000834
:1019D00010B5011E04D0054B1868FFF7B5FF10BD08
:1019E000034B0449186800F027FBF8E7000C0020BF
:1019F00090A400084919000810B5024900F01CFB2A
:101A000010BDC04649190008436E10B5DB0702D46B
:101A100083899B0501D5002010BD806D00F03CFB43
:101A2000F9E7C046436E10B5DB0702D483899B05F6
:101A300001D5002010BD806D00F036FBF9E7C046EF
:101A400070B568244A1E54430E0021007431FFF71C
:101A5000ADF9051E09D000232200036046600C305A
:101A6000A86068320021FEF757FF280070BDC0460D
:101A700010B5034B0349186800F0DEFA10BDC046EC
:101A800090A4000849190008F0B5DE4645465746BF
:101A90004E46E0B505003D4B83B018009B4600F074
:101AA000FBFAAB69002B64D1AB64EB642B65384B5C
:101AB000384A1B68AA620193AB4264D0280000F048
:101AC00077F86860280000F073F8A860280000F03C
:101AD0006FF86E680024E86004233000F3607466D9
:101AE00034607460B46034617461B46108220021B0
:101AF0005C30FEF711FF284B284F9A467362284B43
:101B000036629946B362274B3763F362AE689846F4
:101B10003000254B7466F36034607460B4603461E7
:101B20007461B461082200215C30FEF7F5FE534673
:101B300073624B46B36243463662F3623763EE68C4
:101B40001A4B3000F360746634607460B4603461C2
:101B50007461B4615C3008220021FEF7DDFE53465B
:101B600073624B46B3624346F362012336623763C6
:101B7000AB61584600F098FA03B0F0BCBB46B246E1
:101B8000A946A046F0BD0123AB6197E7F8280020E5
:101B900090A40008F9190008B92200085123000890
:101BA000E5220008252300080900010012000200B8
:101BB000F8B5254E0700300000F06EFA234B1D6883
:101BC000AB69002B2ED048356B68AC68013B03D560
:101BD00023E06834013B20D30C21625E002AF8D157
:101BE000002520001A4B5830E360656600F04CFA7F
:101BF000300000F059FA20002560A560656025617D
:101C00006561A561082200215C30FEF785FE6563F1
:101C1000A563A564E5642000F8BD2C68002C05D000
:101C20002500D1E72800FFF72FFFCCE7042138007B
:101C3000FFF706FF041E2860F2D1300000F034FAEE
:101C40000C233B60E7E7C0460C29002090A4000865
:101C50000100FFFF10B5024800F01EFA10BDC0469B
:101C60000C29002010B5024800F01EFA10BDC04635
:101C70000C29002010B5024800F00EFA10BDC04635
:101C8000F828002010B5024800F00EFA10BDC0463A
:101C9000F828002010B5044800F0FEF9034B044971
:101CA000186800F0A7F910BD0C290020000C0020D6
:101CB000091A000810B5044B0449186800F09AF995
:101CC000034800F0F1F910BD000C0020251A0008AF
:101CD0000C290020F0B54546DE4657464E46E0B595
:101CE000936883B000900C009046002B6DD08B89D8
:101CF0001A0700D471E00A69002A00D16DE042465B
:101D000016689A0700D475E0A36A00279A46B54B77
:101D100000259946216A002D16D02B004D4500D98B
:101D2000B04B3A000098D047002800DCD5E043468D
:101D30009B683F182D1A181A4346986045D0A36A2D
:101D4000216A9A46002DE8D1376875680836E2E7BF
:101D50004B461B689A464B465F6808239C46E14405
:101D6000002FF5D03A000A215046FEF719FD002851
:101D700000D1CEE053460130C61A3300BB469F4225
:101D800000D99B46206822696369904204D9A26801
:101D90009D18AB4500DD92E05B4500DDF9E0A56AEA
:101DA0005246216A0098A847051E00DC95E0761B84
:101DB0000120002E00D1E4E043469B68AA447F1B2B
:101DC0005D1B43469D6000D095E0002003B0F0BC51
:101DD000BB46B246A946A046F0BD21000098FFF7D9
:101DE00093FC002800D0F9E04246A38916689A07C0
:101DF00000D589E7DA0778D4002291468022920044
:101E000000279346A5682068002F53D05A461342F6
:101E100000D181E0AA46BD4200D9AFE09022D200B5
:101E200013422ED02169451AAC46606901954200E3
:101E30001218D00F8218781C5210604492469042BB
:101E400001D9824602005B0500D4AFE01100009882
:101E5000FEF7ACFF051E00D1BAE0019A2169FEF73A
:101E600007FDA389604A134080221343A381524691
:101E7000019B2561E818BA463D00D31A20606261D3
:101E8000A3605246494600F081F9A3685D1BA56036
:101E90003D00002723685344236043469B68A944C0
:101EA0005D1B43469D6000D18FE7A5682068A3892C
:101EB000002FABD13268776891460836A4E75146C7
:101EC0002A0000F063F9236821005B192360009861
:101ED000FFF73AFD002800D169E70C22A35E4022FB
:101EE00001201343A381404270E70023B146002044
:101EF0009A4600271E00002F00D129E7002800D0B5
:101F00003BE73A000A215046FEF74AFC002800D081
:101F100030E77B1C1E0031E72369834217D36369D6
:101F20009A46BB4213D8314B38009F4200D9304803
:101F30005146FEF7FBF953464A464343216A00984F
:101F4000A56AA8470028C8DD05007F1BA5E7BD429C
:101F500000D93D002A00494600F018F9A36822681C
:101F60005B1B5219A3602260002BEED12100009868
:101F7000FFF7EAFC0028B0D17F1B8EE73D00BA4690
:101F80007FE721000098FFF7DFFC002800D113E76E
:101F9000A3E75A46514600F0F9F85A46A3685D4651
:101FA0009B1AA36023685B44236000E7009800F05D
:101FB0005BF9051E00D05AE7009D21692800FEF755
:101FC0009FFE8022A3899343743A1BB22A6086E75E
:101FD0000C23009A13600C22A35E80E7012040428C
:101FE000F4E6C04600FCFF7F7FFBFFFFFEFFFF7FA4
:101FF000FFFFFF7FF0B5C646483000B588460700B2
:102000000026002813D07B68BC685D1E0CD4A38911
:10201000012B06D90E22A35E013302D02000C04757
:1020200006436834013DF2D23F68002FEBD1300007
:1020300080BCB846F0BDC046F8B54746CE4680B530
:1020400007004837804689460026002F14D07B6859
:10205000BC685D1E0DD4A389012B07D90E22A35E97
:10206000013303D021004046C84706436834013D90
:10207000F1D23F68002FEAD13000C0BCB946B0466B
:10208000F8BDC0467047C0467047C0467047C0465E
:102090007047C0467047C0467047C0460120704731
:1020A000012070477047C0467047C04670B50C00AD
:1020B0001D000E23C95E96B01600002914DB6A4687
:1020C00008F0C3F900280FDBF022019B1202134035
:1020D000094A944663445A4253412B608023DB00F3
:1020E0003360002016B070BD00232B60A3891B064F
:1020F000F4D540233360F4E700E0FFFF70B58B892F
:1021000082B006000C009B0707D5230047332360ED
:1021100023610123636102B070BD01AB6A46FFF722
:10212000C5FF009905003000FEF740FE002810D0E2
:102130008022154BB362A38920601343009A1BB21F
:102140006261019AA3812061002A0CD12B43A381F3
:10215000E1E70C22A35E9A05DDD403229343022219
:102160001343A381D1E70E23E15E300008F079F933
:10217000002802D10C22A35EE8E70322A38993433F
:10218000012213431BB2E1E7F9190008F0B5C64676
:1021900000B588420CD98B18984209D2531E002AE8
:1021A00003D0CA5CC254013BFBD280BCB846F0BD30
:1021B0000F2A0CD80500561E002AF6D0002300E096
:1021C0002300CA5C5C1CEA549E42F9D1EDE70B0087
:1021D000032603431E400C000300002E2ED11500E1
:1021E000103D2D09AC462D01A846804400E02B008F
:1021F0001D00276810351F6067685F60A7689F60D3
:10220000E7681034DF604345F1D165460F230C24A5
:1022100001352D01491913404519144211D08C592B
:10222000AC5104369C1B032CF9D80324043B9B08B7
:1022300001339B00ED18C9182240BCE7561E05006B
:10224000BCE71A00B7E7C04610B50248FFF724FF05
:1022500010BDC046FC28002010B50248FFF724FF3F
:1022600010BDC046FC280020F8B507000C00150082
:1022700000291BD0002A15D000F070F82600A842D3
:1022800001D33000F8BD29003800FEF78FFD061E8F
:10229000F7D021002A00FEF7EBFA21003800FEF704
:1022A0002FFDEEE7FEF72CFD0026EAE71100FEF712
:1022B0007DFD0600E5E7C04670B50C000E25495FC0
:1022C00008F0ABF8002803DB636D1B18636570BD75
:1022D000A389024A1340A381F9E7C046FFEFFFFF3D
:1022E00000207047F8B516001F000C228B5E0C0012
:1022F00005000E22895EDA0508D4094A2800134039
:10230000A38132003B0008F08FF8F8BD00220223C1
:1023100008F088F80C22A35E0E22A15EEDE7C0460D
:10232000FFEFFFFF70B50C000E25495F08F07AF84B
:10233000431C06D08023A2895B011343A3816065FF
:1023400070BDA389014A1340A381F9E7FFEFFFFFA6
:1023500010B50E23C95E08F069F810BD0B1F1B688D
:10236000181F002B00DB70470B58C018FBE7C04656
:1023700010B50124A0420CD804290AD80E2A08D886
:102380000F234B434B2141435B189B18A340024A48
:102390009C5A200010BDC046F4A4000810B5FFF7F9
:1023A000E7FF10BD0120704710B5FFF7FBFF10BD20
:1023B000012070470120704710B5FFF7FBFF10BDEB
:1023C000704710B5FFF7FCFF10BD000013B5114BAF
:1023D00000901B780191002B16D16B465B79002B86
:1023E0000DD0002A0BD000F0D7FD040001000098AA
:1023F00000F0AAFD2000009901F042FC16BD0098F3
:1024000000F0B6FD0400F5E7009800F0C5FD009966
:10241000F2E7C046E510002010B50400638800888C
:102420001B040A001843A188FFF7D0FF10BD10B5A8
:1024300004000121FFF7F0FF2100FFF7B5FF10BDF9
:1024400010B504000021FFF7E7FF2100FFF7B9FFF7
:1024500010BD0120704710B5FFF7FBFF10BD000055
:1024600010B5040000F078FC2000FFF7F4FF0248EC
:1024700006F0FFF910BDC046C409000010B50120E8
:10248000FFF7EEFF05F090F910BD10B50020FFF743
:10249000E7FF05F099F910BD70B505000121FFF7C0
:1024A000BBFF6B790400002B01D003F081FB2900F6
:1024B0002000FFF781FF002801D1002070BD290016
:1024C000200003F0ADFD0028F7D02900200004F023
:1024D00047FE0028F1D02900200004F049FA002826
:1024E000EBD02900200004F019FA0028E5D02900DB
:1024F000200003F07BFB0028DFD06B79002B0AD093
:102500001C4B9C422BD00AD81B4B9C4229D015D87F
:10251000013B9C420FD02800FFF74AFFCEE7174B44
:102520009C4224D0164B9C421ED0164B9C42F2D1AA
:1025300001F02EF9EFE7FFF7A1FFBEE701221249F4
:1025400012480B78DC07E40F5440144093431C43BB
:102550000C70144000D00E4802F0C0F8ADE701F056
:1025600021F9FFF792FFA8E701F006F9D3E701F0A0
:1025700014F9D0E7037C0000017C00005B7C0000C4
:102580005C7C00005A7C0000C811002031A60008C5
:1025900020A6000810B505F04EF8002003F01AFD43
:1025A00000F03CF810BD10B503F010FC00F03BF853
:1025B00005F046F810BD3322030100091843C0B2EC
:1025C00083008010104093430343DBB22232580053
:1025D0005B10904313401843C0B2704770B50500BC
:1025E000C0B2FFF7E8FF0400280AFFF7E4FF240267
:1025F000204380B270BD01207047704770B5051C44
:10260000FFF7F9FF041E02D0281CFFF7F6FF200099
:1026100070BD704710B5FFF7F1FF10BD10B5002079
:10262000FFF7F8FF10BD10B504F0F6FDFFF7F2FF5D
:1026300010BD000010B504F0EFFD0C4B04001A783B
:10264000824211D0187005F04BF80522084B186033
:10265000084B1B781340934203D12100064802F037
:102660003DF82000FFF7D6FF10BDC046E410002063
:10267000E0100020C811002043A600081FB50B0A77
:10268000DBB200900191002B01D000F061FF0E231E
:1026900000226B441A80009B02AC02936B469B881D
:1026A000A380DBB2934204D10298616800F0AEFED1
:1026B0001FBD2000FFF7BBFE0028F5D1F8E7037926
:1026C00010B5012B02D1008800F088FC10BD10B5B8
:1026D000002904D004F0A4FA04F074FB10BD04F047
:1026E000F9FAF9E710B5041E13D0822812D104F0CC
:1026F0009DFD83070DD4392004F0EAFE00F0C2FFEF
:10270000C820800006F0B5F8392004F0FDFE00F086
:10271000B9FF10BD83280ED104F088FDC307F8D49B
:10272000532004F0D5FE00F0ADFFFA20800006F043
:10273000A0F85320E9E784280ED104F077FD430781
:10274000E7D4472004F0C4FE00F09CFFFA2080008C
:1027500006F08FF84720D8E7031FDBB2A02B11D873
:1027600004F084F80028D4D1200004F029FE0028C9
:1027700004D0200004F0C8FE00F084FF200004F024
:10278000A7FEC4E703002033DBB2072B07D80723DB
:1027900001201C40A040C0B200F0B4FEB7E7030027
:1027A0005B33DBB2022B04D80C4AD05C04F0B0FDE2
:1027B000AFE703005833DBB21A2B05D8084A5B0099
:1027C000985A04F0BFFDA4E703003333DBB2122BA9
:1027D0009FD804F025FA04F0F5FA9AE7F0B2000861
:1027E000F4B2000810B500280FD082280ED104F0F2
:1027F0001DFD830709D5392004F06AFE00F042FF71
:10280000392004F081FE00F03DFF10BD83280AD17D
:1028100004F00CFDC307F8D5532004F059FE00F076
:1028200031FF5320EDE784280AD104F0FFFC430771
:10283000EBD5472004F04CFE00F024FF4720E0E7F2
:10284000031FDBB2A02BDCD903002033DBB2072B44
:1028500007D80723034001209840C0B200F05AFE79
:10286000D1E703005B33DBB2022B03D8002004F076
:102870004FFDCAE703005833DBB21A2B03D8002000
:1028800004F060FDC1E703003333DBB2122BBCD888
:1028900004F020FA04F096FAB7E7000070B50400DF
:1028A0000D00FFF71FFF0120002D0ED00A4A002364
:1028B00028000021FDF746FE0023084A80185941F0
:1028C000FA2200239200FDF71DFE05F0D2FF200042
:1028D000FFF788FF70BDC04610270000E703000027
:1028E00010B55021392800D00021FFF7D7FF10BDC7
:1028F00010B5002803D000F005FE00F0C3FE10BDA7
:1029000010B5002803D000F005FE00F0BBFE10BD9E
:10291000F0B585B00C1C87790290457900F0E2FD96
:1029200023043F0901900393002828D00195002D2E
:1029300025D023041B0E0F221900914340290FD0EC
:10294000E1B20A0000202032D2B20190072A16D943
:102950001F229343202B03D1012910D987420ED087
:102960000022A94B01925B785B0708D5022000F09A
:10297000C5FE00F0B7FD01234340DBB20193230401
:10298000180F0B283FD8FDF73DFC0C000C005E0033
:102990005E00BC00D1003E003E00D6002F01410188
:1029A00041010F22230426051B0E360F934300D04E
:1029B0003601E4B2002D12D0002E0BD023002033BC
:1029C000DBB23000072B01D9002C05D100F09AFDB5
:1029D00000F058FE200057E000F0AAFDF8E72000C4
:1029E000FFF700FF002E0ED023002033DBB23000B3
:1029F000072B01D9002C02D100F08CFD01E000F082
:102A00009FFD00F03FFE039B1B0F083B032B03D8E9
:102A100004F002FCFFF7FEFD019B002B11D000F03B
:102A200059FD012318400CD1029B587100F04CFD58
:102A300000F01CFA029800F057F900F045FD00F094
:102A400021FA05B0F0BD0F22230426051B0E360F18
:102A50009343202B00D03601E4B2002C06D0012C89
:102A600036D0002D40D0002F1CD0B3E7664B5B78EA
:102A70005B0713D4002D0AD0002E04D0300000F0E4
:102A800041FD00F0FFFD0020FFF72CFEBBE7280012
:102A9000FFF7A8FE002EB6D03000ADE7002D0BD01A
:102AA000002F03D13000FFF723FFACE7012FAAD19D
:102AB000300000F06DFDA6E7002FA4D13000FFF735
:102AC0001FFF300000F072FD300000F04DFD9AE76E
:102AD000002D02D0052F96D8E4E7042F00D992E705
:102AE0003000FFF70DFF8EE7002FF9D00120392CC1
:102AF00001D1C820800005F0BCFE2000FFF772FE67
:102B000081E72005800F0AD0012800D07BE7002054
:102B1000854201D0A005800D04F014FC73E7002D60
:102B200001D0A005800D04F0F3FB6CE7E0B22900B2
:102B3000FFF7CDFD67E723049B019B0F24D1002DF8
:102B400000D060E723065B0F9B002007DBB2000F7D
:102B5000984080B2E20603D50F359D40ED43ADB2FB
:102B60002405A40F2843022C08D00AD8012C02D037
:102B700000F04EF947E700F041F944E700F052F960
:102B800041E700F036F93EE7A205920FD1B20123EA
:102B9000002D1DD01340002B00D134E72206520F28
:102BA00092002007D2B2000F9040002380B2E106CD
:102BB00003D50F339340DB439BB22405A40F184386
:102BC000022C0BD00DD8012C05D000F07DF91AE7AE
:102BD00049080B40DFE700F06DF914E700F07EF9DB
:102BE00011E700F02FF90EE7E6B22405240F002DBF
:102BF00003D0200000F03AF954E73000FFF780FEE0
:102C0000200000F03FF9FEE624270020E6B2300065
:102C1000F03804283ED8FDF7EBFA032611182200FD
:102C2000002D07D0042F00D9EDE6E004C00E00F01F
:102C300035F9E8E6052F00D9E5E6F6E7E004C00E31
:102C4000002DDED100F012F9DDE6002D04D0E00405
:102C5000C00E00F004F9D6E600F0FCF8D3E6194BFC
:102C60005B785B0704D4E004C00E002DC9D0E9E70F
:102C7000002D05D0E004C00E032100F01DFDC2E6CA
:102C8000012000F03BFD012F00D8BCE6022000F03F
:102C900035FDB8E6002D06D0002F01D03000F3E658
:102CA000E004C00ECEE7002F08D00120392E01D15C
:102CB000C820800005F0DDFD30001FE7E004C00EF5
:102CC0009FE7C0462427002070B504004079218882
:102CD00000F08EF9051C00F00BF900F089F8291CB2
:102CE0002000FFF715FE70BD037910B50400002B1E
:102CF00011D0FFF7D1FB00280ED100F0F3FB002824
:102D000009D06379002B06D0074B5B785B0702D5AF
:102D1000022000F0F3FC10BD2000FFF7D5FF2000DB
:102D2000FFF78EFBF7E7C0462427002010B50020F0
:102D300004F0EEFA002004F005FB00F009FC00F0BE
:102D4000A1FC04F0B3F804F03DF810BD10B504F098
:102D5000F7FBFFF7EBFF10BD10B500F0E3FBFFF74B
:102D6000F5FF10BDC3B20004020F10B500200B2AFE
:102D700008D801210C00944022000C4C224202D1C0
:102D800052060BD410BDF02B0DD003D8E7229A4287
:102D90004041F7E7F43B58425841F3E70800E72B7E
:102DA000F0D9F13BF7E70800ECE7C0460C0C000057
:102DB00003000279002010B5824204D0188800F088
:102DC0000DF9FFF7CFFF10BD82B002B0704782B09F
:102DD00002B07047704710B5FFF7FCFF10BD000050
:102DE00010B5FFF7F8FF014B188010BDE61000206A
:102DF000704710B5FFF7F4FF10BD000010B5034B8E
:102E00001B881843FFF7ECFF10BDC046E6100020FA
:102E100010B5034B1B881840FFF7E2FF10BDC046FA
:102E2000E610002010B5034B1B885840FFF7D8FF71
:102E300010BDC046E6100020704710B5FFF7FCFF3C
:102E400010BD000010B5FFF7F8FF014B188010BD52
:102E5000E810002010B50020FFF7F4FF10BD01239B
:102E6000834010B598B2FFF7EDFF10BD01238340FA
:102E7000034A10B51088184380B2FFF7E3FF10BD76
:102E8000E81000200123834010B5034A10889843BE
:102E9000FFF7D8FF10BDC046E81000200123834093
:102EA000034A10B51088584080B2FFF7CBFF10BD21
:102EB000E810002010B5034B1B881843FFF7C2FF32
:102EC00010BDC046E810002010B5034B1B88184009
:102ED000FFF7B8FF10BDC046E810002010B5034B47
:102EE0001B885840FFF7AEFF10BDC046E810002019
:102EF000704770B50125CB089B00D21807232E0020
:102F000019408E400021F6B20300CB40545C2B40A8
:102F10005B42634033406340535401310429F3D191
:102F200070BD30B5072400220440C0088000091895
:102F3000012510008B5CE3402B4093400132184385
:102F4000C0B2042AF6D130BD07B5030401AA10802F
:102F50001B0E0800042B08D812780E2A05D80F2162
:102F600059438918014AFFF7C4FF07BDEA10002042
:102F700007B5030401AA10801B0E0020042B08D8FB
:102F800012780E2A05D80F30584302498018FFF7EF
:102F9000C8FF0EBDEA100020F7B50F2401270D4B26
:102FA00001AE1A880C4B30801B881A430092009B9C
:102FB000E5B223413B4204D1013CF8D20025280070
:102FC000FEBD3168280000F06BFE80B20128F3D00E
:102FD000F5E7C046E8100020E610002007B501AB79
:102FE00018800198FFF7D8FF019900F059FE0EBD37
:102FF00037B50F4B01AC1B782180002B03D0019813
:10300000FFF7ECFF3EBD00280CD02068FFF7C4FF9F
:10301000050001002068FFF797FF0199280000F0E4
:103020003FFEEFE72068FFF7A3FF0500F5E7C04686
:10303000E510002070B507250B4B1C780B4B1B7857
:10304000A34200D170BD0A4BE200D15A9B185888A8
:103050009A8800040843D988013409041143FFF712
:10306000B6FE2C40EAE7C0465B1100205A11002052
:103070001A110020064B10B558881A88D988000408
:1030800010439A8809041143FFF7A1FE10BDC04602
:10309000121100200F221B48F8B5837993432BD1DE
:1030A0004379002B28D0184B05881A78174B46888F
:1030B0001C7807239C46164FA2421DD0D300FB1854
:1030C0001979002919D01988A94216D159790029EE
:1030D00013D15988891B89B2C7290ED80F24102112
:1030E000827922400A4382719A7922401143997170
:1030F000FFF7FAFDFFF79EFFF8BD634601321A4065
:10310000DAE7C046121100205B1100205A1100209E
:103110001A110020F0B50C4B0C4A1B7816780C4C99
:10312000B34202D100221000F0BDDD0062195778D1
:103130008F4205D12D5D854202D15279002AF2D10C
:10314000072201331340EBE75B1100205A110020E6
:103150001A110020F0B504008BB00622010004A86B
:10316000FDF786FBA84D22792B796779002B1CD1BE
:103170000126002A00D17FE0002F11D02000FFF7A8
:1031800017FE061E0CD0082221002800FDF770FB58
:103190002800FFF794FAFFF77DFFFFF76BFF6BE066
:1031A0002000FFF7A1FD012666E0237800936378F5
:1031B0000193638802936B8802996E79CB1A9BB254
:1031C000002E00D1DAE0C72B00D998E0002A53D0B6
:1031D0002B880F200393AB7921881A0082435CD19E
:1031E000039A91420ED1002F50D110220340134375
:1031F000AB71FFF73FFF2800FFF776FDAB79A371B6
:103200003E0039E0002F41D101990098FFF782FF7D
:1032100001990098FFF77EFF051EF1D1009A04ABDB
:103220001A70019A5A700498FFF7D8FE0304190F18
:103230000B2914D801228A40C0210901C0B20A42D8
:103240001DD10C210A420FD1920708D01B011B0F80
:1032500001D000280FD02030C0B207280BD92000A1
:10326000FFF742FD350006E00F221B0E1A42F2D096
:10327000A3799343EFD12E0030000BB0F0BDEF28BF
:10328000F9D90F30C0B20228E9D8F4E701235E4A29
:1032900091790B4393710026EEE7039A91420BD18B
:1032A000002F09D1A3712000FFF71EFD0822210085
:1032B0002800FDF7DDFA70E72000FFF779FD002810
:1032C00000D16DE7002F00D16AE74F4B9A791F2A92
:1032D0000BD906A819880180029941801B79827157
:1032E000037100234371FFF7FFFC082221004648C9
:1032F000FDF7BEFAFFF7CEFEFFF7BCFE53E7AB7952
:103300000F2118008843039017D1009904AB19705E
:1033100001991A71597002995F7159800599049841
:10332000FFF752FD2800FFF7DFFC08220399280071
:10333000FDF7F2FAFFF79EFEADE7002A9CD0298840
:10334000228891420BD1002F09D12000A371FFF7F1
:10335000CBFC082239002800FDF7DEFA8CE72000BC
:10336000FFF726FD002800D11AE7002F00D117E74C
:10337000254B08A89A791F2AB7D9ABE7C72B2FD8B6
:103380000126002A00D177E73E1E00D108E72A88EF
:1033900023889A4217D1AA79D3070ED40F2113009C
:1033A0008B430AD0A271F02B00D17CE7D3B21A096B
:1033B000013212010B40134374E708222100124826
:1033C000FDF756FA58E72000FFF7F2FC00288CD1F1
:1033D0000123AA7920001343AB71FFF785FC4BE76B
:1033E000009904AB197001991A71597002995F71B3
:1033F000598004980599FFF7E7FC0822310028005E
:10340000FDF78AFAC9E6C04612110020F0B585B072
:103410006C46009020006160FFF79CFE264E071E60
:10342000264D0CD02379002B02D003CCFFF7CFFC24
:10343000072728783378834225D105B0F0BD2200D4
:1034400002AB9C4603CA03C32379002BF0D00723A9
:103450003078441C1C402B789C420AD0184BC0008A
:10346000181808226146FDF703FA3470FFF7E2FDF1
:10347000DEE7FFF771FC08223900124837702F7021
:10348000FDF74AFAD4E70E4CC0002018FFF762FEA1
:103490000028D2D02B78DB001A5BE4186088E18822
:1034A000A3880004090419431043FFF790FC2B780C
:1034B00001333B402B70BCE75A1100205B11002008
:1034C0001A11002012110020014B1878C008704713
:1034D000AC110020024B1878072318407047C046F3
:1034E000AC110020034B187807231840431E984165
:1034F000C0B27047AC110020014B18787047C0462D
:10350000AF110020024B1A78104318707047C04664
:10351000AF110020024A1378834313707047C046EE
:10352000AF1100200022014B1A707047AF1100202C
:10353000024B1A78104318707047C046B011002033
:10354000024A1378834313707047C046B0110020BD
:103550000022014B1A707047B0110020704710B55F
:10356000FFF7FCFF10BD000010B5054A13781842A4
:1035700004D0834318001370FFF7F1FF10BDC0465D
:10358000AD110020704710B5FFF7FCFF10BD000023
:10359000010010B5044A13781940814203D0034357
:1035A0001370FFF7F0FF10BDAE11002010B5054AF3
:1035B0001378184204D0834318001370FFF7E3FF19
:1035C00010BDC046AE11002010B5044B1A78002A79
:1035D00003D000201870FFF7D6FF10BDAE110020F9
:1035E00010B5094B1C78094B1B781C43084B1B7802
:1035F000002B06D01C4303F0BFFE002801D0FFF7CC
:10360000E3FF200010BDC046AF110020B011002024
:10361000AE11002070B50B4C2568FFF7E1FF287054
:103620002468094D082229002000FDF7F9F8002838
:1036300007D0082221002800FDF71AF9200003F026
:10364000F9FD70BD640C00208411002070B50B4C96
:103650002568FFF7C5FF68702468094D20222900FE
:103660002000FDF7DDF8002807D0202221002800E7
:10367000FDF7FEF8200003F00DFE70BD680C002081
:103680008C11002010B5074B1B78002B06D0064B81
:103690001B787F2B02D9FFF7D9FF10BDFFF7BAFFC8
:1036A000FBE7C046C40C002024270020704710B55B
:1036B000FFF7FCFF10BD0000094B10B55B785B07FE
:1036C0000AD5084CC3000B432370FFF7CFFB2078CB
:1036D000C008FFF7ECFF10BDFFF7C8FBFBE7C046D3
:1036E00024270020AC110020002010B5024B1870D8
:1036F000FFF7DDFF10BDC046AC11002010B5094A30
:1037000013781900814311704A070AD1994208D0F1
:10371000054B5B785B0704D5C808FFF7B3FBFFF7E1
:10372000E3FF10BDAC110020242700200F4A70B524
:10373000537804005907C90F814215D001000125B3
:1037400004202940890083430B435370108800F004
:1037500050F80220FFF7D2FF054B1B782B4203D015
:103760002100044800F0BAFF70BDC04624270020A5
:10377000C811002053A60008044B10B55878012347
:103780004007C00F5840FFF7D1FF10BD242700208D
:1037900010B50120FFF7CAFF10BD10B50020FFF7DC
:1037A000C5FF10BD10B5002001F0CEF90249002080
:1037B00001F006F810BDC046FFFF000010B5002064
:1037C00000F0A3FF024BC01843425841C0B210BDE5
:1037D0001B01FFFF10B5022000F08BFF10BD10B5DC
:1037E000032000F086FF10BD10B5042000F08DFF0F
:1037F00010BD10B50100042000F0E2FF10BD10B5AF
:1038000001000F2000F0E8FF10BD10B501001320EB
:1038100000F0E2FF10BD10B50020FFF7F6FF10BD6D
:1038200010B50020FFF7EBFFFFF7F5FF10BD00001C
:1038300007B5002001F088F91D49002000F0C0FF05
:103840000021022000F0B0FF01211A4B0320198053
:1038500000F0AAFFA0210420490100F0B1FF0021DF
:10386000062000F0A1FF0021072000F09DFF0021AD
:10387000082000F0B1FF0021232000F095FF002177
:103880000C2000F091FF00210D2000F08DFF00239F
:1038900000221721009201936846083200F067FF6A
:1038A00000211F2000F098FFFFF7BAFF07BDC046B8
:1038B000E5FE0000E610002010B5FFF7B9FF10BDCF
:1038C00010B501000E2000F06FFF10BD73B503F0BE
:1038D0003FFF094C0500238883420CD06B4600262D
:1038E0001E8003F035FF6B469E805880009801993A
:1038F000FEF7C4FE258073BDBC11002010B503F097
:10390000EFFE024B1860024B186010BDB41100208E
:10391000B81100207047704710B5FFF7FCFF10BDCD
:10392000704710B5FFF7FCFF10BD01207047000085
:1039300010B5054800F090FA01F002F9FFF7EAFF30
:10394000FFF7EAFF10BDC046017C00080120704768
:1039500010B5FFF7FBFF10BD7047704710B5FFF7BC
:10396000FBFFFFF7FAFF10BD10B5FFF727FF002898
:1039700001D1FFF7A1FFFFF72DFF094B1870FFF7EB
:1039800033FF084B188002F0DEFCFFF728FF80B2FF
:10399000FFF72FFA044B1888FFF74FFA10BDC04607
:1039A000C811002024270020E810002010B503F0E3
:1039B00093FE00F025FBFFF7D7FFFEF72AFE02F08B
:1039C000F9FB02F003FA01F0E7FFFFF7AAFF10BDD1
:1039D000F0B587B0FFF7A9FF00280BD1FFF776FFFE
:1039E00002F0E7F802F0CEFB03F08AFAFEF722FEBF
:1039F00007B0F0BD00F01CFB294E0024350020006C
:103A00000134E4B22F8800F03FFA052C44D002358F
:103A10008742F4D0234B1B789B0701D500F03AFA7C
:103A2000FFF796FF00240390200000F02DFA338862
:103A30000700984228D043409BB2029300230125FF
:103A40000193029B1D4216D0039B002B13D0019AB9
:103A500004AB1A705C7003F07BFE012204AB1A7198
:103A600058802B003B405A1E934104AA537104987E
:103A70000599FEF703FE019B6D000133DBB2019354
:103A8000ADB20F2BDDD137800134E4B20236052C04
:103A9000CAD1FFF733FFA3E78742BBD19EE7C046F9
:103AA000BE110020C811002070B500F003F9624B70
:103AB000040098422AD88023DB01984200D36CE0AE
:103AC000DF2819D8CD2854D2A7280AD8A5284AD249
:103AD000012819D003B2002B01D0042814D20024ED
:103AE00012E0C228FBD85834E4B2544B6400E05AC8
:103AF0008824E401044307E0514B984200D989E04F
:103B0000FF283BD8E728EAD8201C70BD4D4B9842CF
:103B100012D84D4B98424ED24C4B984246D81F3B40
:103B2000984269D30323C4B2A0081C40023BA340BF
:103B300040011843464C1EE0464B984207D81F3BB5
:103B4000984243D31F2020400002434CD2E7434B0E
:103B5000984246D9424B9842C1D80402F82040010D
:103B600004404048C6E75B343F4AE4B2145D1C435E
:103B7000CAE7A020C0010443A4B2C5E7000AC0B24E
:103B800000F01CF90500E0B2F82400F093F864019D
:103B90002D0225400543ACB2B6E7C0B200F08AF86A
:103BA000F0231B011C4004433048E4E71F20204061
:103BB00000022F4C9EE70323C4B2E0061C40023BE8
:103BC000A340400F400118432A4CD4E70323C4B25A
:103BD000E0061C40023BA340400F40011843264C26
:103BE000C9E71F20204000F0E9F8F8240002640132
:103BF00020400134FF347DE71F20204000F0DEF834
:103C0000E405240F2402C30600D5000100B22043BE
:103C10001A4CB0E7C004C00E00F0D0F80500E0B2C6
:103C2000F82400F047F864012D02254001340543D3
:103C3000FF342C43A0E7C046FF4F00002EB300081E
:103C4000FF1F00005F520000405200001F520000A2
:103C5000008DFFFF9F520000F4A00000BF52000043
:103C6000DF520000F0A000002AB3000800A0FFFF10
:103C7000F1A00000008CFFFF008AFFFF0090FFFF13
:103C800007B50B0401AA1180190E0023042905D8D9
:103C900012780E2A02D8FEF781FB030018000EBD31
:103CA00007B501AB19800199FFF7EAFFFFF7FCFEAA
:103CB0000EBD000010B582280CD014D8312866D073
:103CC00004D829285AD02A2867D010BD352850D0CA
:103CD0003928FAD1384B1A78920767D15B781B07DD
:103CE000F3D52920F1E7E32827D00BD8E02816D018
:103CF000E228EAD1304B1B785A07E6D5E320DB06F1
:103D000019D4E2E7E62826D0E72829D0E428DCD138
:103D1000294B5A789207D8D51B78E720EFE7264C35
:103D20000121227813000B402FD164780C42CCD0B3
:103D3000E320D206C9D50020C7E71F4A13785907E8
:103D400032D45278D20731D4102213405A42534110
:103D50005B421840B9E7184B1B781A07DDD4B4E76B
:103D6000154A1378190723D452789207ECD5E4202A
:103D7000ABE7114B1B789B06A7D5B2E70E4B1A7821
:103D8000920617D45B781B079FD539209DE70A4B15
:103D90001B785B0699D52A2097E7074B1B785B06B3
:103DA00000D492E7312090E7E2208EE7E0208CE714
:103DB000E6208AE7352088E724270020244A30B50A
:103DC00011784B070DD514230340043B5C425C4142
:103DD00018230340083B5D426B419C4201D00C23F9
:103DE00058400B070DD514230340143B5C425C4143
:103DF00018230340183B5D426B419C4201D00C23C9
:103E000058405278D3070DD511230340013B5C4243
:103E10005C4118230340083B5D426B419C4201D04A
:103E20000923584093070DD511220240113A5342FD
:103E30005A4118230340183B5C4263419A4201D027
:103E400009235840CB0601D51823984330BDC046FE
:103E50002427002000207047014B18607047C0469F
:103E60006C0C002010B5024B1B68984710BDC04673
:103E70006C0C0020704710B5FFF7FCFF10BD7047B9
:103E800010B5FFF7FCFF10BD014B4000185A7047FA
:103E90003027002010B50D4800F020FC0024210040
:103EA0000B4800F01BFC0B4800F018FC0A4A6300AA
:103EB000D05AFEF793FB0100084800F00FFC0134D4
:103EC000074800F00BFC052CE9D110BD68A60008DE
:103ED0007FA6000884A600083027002087A60008D7
:103EE000CBB2000810B5012004F0C3FC10BDC046E1
:103EF000C046C046C046C046C046C046C046C04692
:103F0000C046C046C046704710B5FFF7EBFF10BD76
:103F100010B572B60F23020001211A409140984358
:103F2000202205F0F0FB62B610BD000070B50B4C0E
:103F3000250014352068431C01D0FFF7E9FF043445
:103F4000AC42F7D1064C25003C352068431C01D01B
:103F5000FFF7DEFF0434AC42F7D170BDA0B3000818
:103F600064B30008F7B5244B8A00D3580190009140
:103F70005A1C40D072B601250F242E001F0023408A
:103F80009E40A74331002A003800B6B205F0BBFBC3
:103F90007E8362B6FFF7ABFF00262000AC461749D0
:103FA0000A680023571C0AD0130083431B69024090
:103FB000D34067461A0000233A4200D12BB2013C9D
:103FC0001E436D00E4B2B6B2ADB20431002CE7D1AD
:103FD000009B9A00084BD058431C01D0FFF798FF74
:103FE00031004B1E99410098C9B2FFF78DFF009B2D
:103FF000019A5B009E52F7BDA0B3000864B30008AD
:1040000010B50A24FFF792FF220000210648FCF7B2
:1040100083FC220000210548FCF77EFC052000F00F
:1040200039F8FFF728FF10BD302700202627002091
:1040300030B585B00A22002101A8FCF76DFC0024F0
:104040002100013401A8E4B2FFF78CFF052CF7D161
:104050000E4C0A2201A92000FCF7E2FB05006B1EB2
:104060009D41EDB2002804D00A2201A92000FCF7EE
:10407000FFFB2B0005220649200000F00DF804008C
:10408000FFF7FEFE200005B030BDC0462627002009
:104090003027002070470000F7B507000191140099
:1040A0001E1E134D07D001232B7003F019FB114B7B
:1040B00018600020FEBD2B780093002BF9D00D4B2B
:1040C000186803F051FB0428F3D96400220039007A
:1040D0000198FCF7A5FB002805D0220039000198C3
:1040E000FCF7C6FB009E002330002B70E2E7C046C1
:1040F000C9110020CC11002010B5FFF769FC10BDDC
:1041000010B503F0B5FA03F0A7FDFFF711FC03F0BB
:10411000A7FDFFF74BFC03F0BDFD03F0C3FDFFF768
:10412000EBFF03F0E7FD03F07BFDFFF717FCF4E77F
:104130000300DA680800511C10B5D96019698A4279
:1041400004D21C68002C02D05968A04710BD9B689F
:104150009854FBE7F7B51F00C36804000093089B61
:10416000019115009B070DD0002D0DD1089B9B07D9
:1041700015D4F7BD20212000FFF7DAFF0136BE423B
:10418000F8D3F1E71600FAE7019B013D595D2000E5
:10419000FFF7CEFFE8E720212000FFF7C9FFE36823
:1041A000009A9B1ABB42F6D3E3E70000F0B58FB04C
:1041B000049003921D00169C002923D123051DD4D1
:1041C000302206AB1A70102301319C430A00A3076A
:1041D00044D40123159A2340002A0BD00A00002B57
:1041E0003CD0039A002A02D10C32144202D0159A14
:1041F000013A15920A0006A8302628E0102DE5D1D4
:10420000AC43E3E76123A20600D541230F0000265B
:10421000DBB20A3B059329003800FCF783F8059BC5
:10422000CAB2D3188446DBB2092902D8130030334E
:10423000DBB2082004AA1218711C9355BD42C5D8E0
:104240000E002029C2D06746E5E716540132002B44
:1042500004D0159F974201D9202AF6D106A8302311
:1042600001E083540132149E964201D9202AF8D1EC
:10427000082D03D1914201D210239C43274B1C42AD
:1042800025D0230537D4002A35D0149B934202D081
:10429000159B93422FD191423CD2013A002A2AD059
:1042A000102D25D0022D0DD18A4223D801E0022DF8
:1042B00008D11F2A26D8622302E058231F2A21D8BA
:1042C000835401321F2A1DD83023835401321F2A00
:1042D00018D8039B002B03D02D238354013211E007
:1042E000630701D52B23F8E723070BD52023F4E739
:1042F000914202D2013A102DD9D1A306DDD4782300
:104300001F2ADDD901000094159B0498FFF722FFB6
:104310000FB0F0BD102DC5D1EFE7C0461020000052
:1043200010B5FFF79FFD10BDF0B5070015008BB06D
:104330000591059B1978002911D13B68002B0BD101
:104340003A69002A08D0B968002905D0FB689A426A
:1043500000D8531E0022CA54F8680BB0F0BD059B6C
:10436000002001330593252900D0DBE008242439FF
:10437000059B059A1B7801322B2B16D00BD8202BCE
:1043800015D0232B15D019003039092933D8002333
:104390000A24049315E02D2B04D0302BF3D10843CD
:1043A0000592E5E702231843FAE70423FBE72043DD
:1043B000F6E71023F7E7049B05916343303BD318DE
:1043C0000493059B1A78591C1300303B092BF2D932
:1043D000059B1B782E2B4ED1802212011043059A8B
:1043E000059B5278013311003039092939D80A2246
:1043F0000026944613E0002104912A2BE8D108CD31
:1044000004938B4204DA02231843049B5B42049317
:104410000592DDE763465E432300303E96191A7825
:104420005C1C110030390929F4D919785A1C6C29FF
:104430002BD023D8682930D06A2936D01A001178B9
:10444000531C0593692937D063D8622900D126E12E
:104450002ED8252966D0582964D120231843103B33
:104460003AE000262A2AE0D140CDF343DB171E4074
:10447000059B0233D9E7059B0026D6E7742901D0B6
:104480007A29DBD180239B000BE059786C29F9D184
:10449000C022D20010439A1CD1E75978682902D073
:1044A00080231843CBE7C022F4E78023DB00F8E742
:1044B000632969D0642935D18023DB011843782929
:1044C00038D05829C9D06F2900D1E6E0622900D13F
:1044D000E5E010239843063B020501D501229043F5
:1044E0008022D200024041042ED5002A00D020E7CD
:1044F0002C1D296882051FD5CD1702900498CA0F7C
:1045000049196940019000963800FFF74FFE2500D9
:104510000FE7732959D009D86F2900D1BDE0702960
:1045200000D1A3E03800FFF703FE02E77529D0D0E1
:104530007829F7D11023CFE7420601D549B2DBE74E
:104540000206D9D509B2D7E7002A00D0F1E60C213E
:1045500004008C43A4462C1D810506D561460291BA
:104560000499009601912968CEE72968420607D58B
:10457000C9B262460292049A009601920022C3E7F1
:104580000206F6D589B2F4E70224012604400AD1D6
:10459000012304E020213800FFF7CAFD3300049A0C
:1045A0005E1C9A42F6D802CD3800C9B2FFF7C0FDB2
:1045B000002C00D1BDE6049BB34200D8B9E620210F
:1045C0003800FFF7B5FD0136F5E72B0004CB069266
:1045D0000793002A08D10090049B06223149380035
:1045E000FFF7B8FD079DA4E6331E00D12E4B069AB7
:1045F0001500D3182A78002A01D0AB4214D1069BAB
:10460000ED1A80231B010340089302D0B54200D964
:10461000350002230340099304D1049B6C1CAB4278
:1046200004D82500069C0BE00135E3E72021380083
:10463000FFF77EFD2500F0E738000134FFF778FD35
:104640002178002906D0089B002BF5D0069B9B19EA
:104650009C42F1D1099B002BC4D0049BAB42C1D931
:1046600020213800FFF764FD0135F6E70F4C02CD3D
:104670000443002907D100940A2305220C4938007D
:10468000FFF768FD55E60A2302940193009606336E
:1046900000223800FFF78AFD4BE608231CE70223BF
:1046A0001AE7C0468DA60008FFFFFF7F012000002B
:1046B00094A600087FB5074B0A00019300230293DC
:1046C00003930493044B010001A80593FFF72CFE0C
:1046D00007B000BD21430008FFFFFF7F0FB407B5FF
:1046E00004A901C90191FFF7E5FF03B008BC04B0BC
:1046F000184713B56B46DC1D002301000122200082
:10470000237000F025FA207816BD13B56B469C1D6A
:104710000023010002222000238000F019FA2088E3
:1047200016BD002307B50100042201A8019300F083
:104730000FFA01980EBD07B56B46D971073301001A
:104740000122180000F03FFA07BD07B56B46D9807B
:10475000063301000222180000F035FA07BD07B544
:1047600004220191010001A800F02DFA07BDF8B55F
:104770001400D31D6A46DB08DB00D31A00AF9D4648
:104780000500220068460E0000F0E2F922006946AA
:104790002800FCF745F8002804D02200310028004A
:1047A00000F011FABD46F8BD70B50D000400FFF72A
:1047B000A0FFA84203D029002000FFF7BCFF70BD76
:1047C00070B50D000400FFF7A0FFA84203D0290038
:1047D0002000FFF7BAFF70BD70B50D000400FFF7B1
:1047E000A0FFA84203D029002000FFF7B8FF70BD4A
:1047F00010B500F099FA094C094800F051FA09483F
:1048000000F04EFA200000F04BFA074800F048FA9A
:1048100000F09AFA054B1C6010BDC04600F001087C
:1048200000E0010800E8010800F80108D02100209C
:10483000012398430C4B70B5C5182B880B4A0026F2
:1048400093420FD10A4A0536145AE443A4B29C425B
:1048500008D000F069FA2100280000F041FA0600B3
:1048600000F072FA300070BD00E00108FFFF0000A8
:10487000D011002070B50526FFF7BAFF0B4C00F0F1
:1048800053FA0B4D2988002907D0C943200089B26B
:1048900000F026FA052800D00600064B0234023547
:1048A0009C42EFD100F050FA300070BD00E00108EA
:1048B000D011002000F00108F8B51B4B1C5A012C48
:1048C0000FD80222194D63031D43ADB2184B194E88
:1048D0009B1A32689A420AD9FFF7CCFF07003800CA
:1048E000F8BDE025803880B204222D02EEE74008B2
:1048F0002843070000F018FA30683900831C336041
:1049000000F0EEF9E02307001B029D4209D1E143CC
:10491000306889B2831C336000F0E2F9052800D0CA
:10492000070000F011FADAE7D01100200080FFFF45
:1049300000000208D021002070B50D4C0D4B2268FC
:1049400005009A4204D9FFF795FF0400200070BDCE
:1049500000F0EAF9084B2068595D2D022943831CB9
:1049600089B2236000F0BCF9040000F0EDF9EDE736
:10497000D0210020FFFF0108D0110020224BF0B50C
:104980001D00224A224811880232C943198002338D
:104990008242F8D10123C02680279C46F601FF0100
:1049A00013881C498B4208D019B21B4C002909DB23
:1049B000190A6B540232A242F2D98020174B4001EF
:1049C0001A60F0BD19003140B14212D1901CA042D2
:1049D00018D851880200C94389B20029EAD0104A88
:1049E0005B001340020080330E488342E2D8E95254
:1049F000E0E73B42DED160465913014008485B00C6
:104A00000340F1E70200D8E7D011002000E00108E0
:104A100000F00108FFFF0000FFFF0108D021002087
:104A2000FE3F0000FF0F000010B5FFF7E1FEFFF7AB
:104A3000A5FF10BD0E4B10B5040007209C4210D8F6
:104A40000C4B0020E3181A788A420AD01970200013
:104A5000FFF7EEFE002804D17F2C03D82000FFF7DB
:104A60006BFF10BD012320009843FFF725FFF8E7F7
:104A7000FF0F0000D0110020F8B51C4B04000E0001
:104A8000072598420ED8063D05400DD0C9B2FFF764
:104A9000D1FF01340500310AA0B2FFF7CBFF052892
:104AA00000D005002800F8BD114BC3181F88B9427B
:104AB000F8D01980FFF7BCFE051EF3D17F2C11D86A
:104AC000FAB2F3B205359A4203D02000FFF734FF63
:104AD00005003F0A360AB742E4D00134A0B2FFF71E
:104AE0002BFFDCE72000FFF7E7FEDAE7FF0F00000F
:104AF000D0110020034AFF23904201D8024B1B5CD7
:104B000018007047FF0F0000D0110020084B98429A
:104B10000BD8084BC318C20705D5074A125C187892
:104B20001202104370471888FCE70448FAE7C046B1
:104B3000FE0F0000D0110020D1110020FFFF000067
:104B400010B5FFF71BFF10BD10B5FFF76DFF10BDCF
:104B5000F0B5050085B00C00161E0BD0CB0709D5AB
:104B60004B1C471C88B20193FFF7C4FF28703D001F
:104B7000019C013E01232F002B400293A3190196B3
:104B80000393019B012B0BD873085B00E418ED180D
:104B90009E4203D0A0B2FFF7ADFF287005B0F0BD74
:104BA000039B019A981A80B2FFF7B0FF029B002B7B
:104BB00005D13880019B0237023B0193E1E7387051
:104BC000000A7870F6E7F7B505000C00161E0BD04A
:104BD000CB0709D5471C3D004B1C0178A0B20093C0
:104BE000FFF728FF009C013E01232F002B4001937B
:104BF0000096009B012B0AD873085B00E418ED189F
:104C00009E4203D02978A0B2FFF714FFF7BD019BA5
:104C1000002B0BD13988009BA019C01A80B2FFF776
:104C20002BFF009B0237023B0093E2E77B78397849
:104C30001B021943EFE700000122094B1000D9685D
:104C400011420CD1D9689018490708D4D968801846
:104C5000C90604D4D8681040434258410430704714
:104C60000020024037B50400FF25FFF7E5FF0128CB
:104C700011D1002C01D105303EBD002301930195D7
:104C8000019B002B03D1FFF7D7FF013CEFE7019B0E
:104C9000013B0193F4E7002CEED10620ECE7000085
:104CA00070B506000C48FFF7DDFF052813D102257B
:104CB0000A4C094823692B4323614023666122691A
:104CC00013432361FFF7CEFF062802D02369AB43CD
:104CD00023613423E36070BDFF0F00000020024019
:104CE000F8B5F8231B06C2180D4B06000F0007206D
:104CF0009A4214D81830FFF7B5FF05280FD10125C7
:104D0000084C1A3023692B4323613780FFF7AAFF31
:104D1000062802D02369AB4323613423E360F8BD46
:104D2000FEFF070000200240044B1A69120603D55B
:104D3000034A5A60034A5A607047C0460020024046
:104D400023016745AB89EFCD8023024A11690B43EC
:104D50001361704700200240F0B5050A85B0030CCE
:104D6000EDB2019003AED8B2002D0FD1002901D0D1
:104D7000284B185C30707070B07072783078B378EF
:104D800012021B041043184305B0F0BD01AB1F789D
:104D900084B2002901D01F4B1C5C0620FF21784300
:104DA000FBF7C4FA55235B4243437F00FF180323FC
:104DB0005F43FF21FFB23B00CF1B4A1B6B437D4388
:104DC0001B122D12CB1A491B62436343614312121B
:104DD0001B120912D2B2DBB2C9B2E4B2062814D84F
:104DE000FBF706FA04060C0A0F13040023000C005C
:104DF00034707370B270C0E721001C0013000A0009
:104E0000F6E70B0021001400F9E7210014001A0056
:104E10000B00EDE784B500081FB50121FFF79CFFEB
:104E2000FF210300020A0A400B4012021343000C48
:104E3000034A084013400004184305B000BDC046B3
:104E4000FFFF00FF704700001FB5FFF7E5FFFF21E0
:104E50000300020A0A400B4012021343000C034AEB
:104E6000084013400004184305B000BDFFFF00FFD9
:104E700013B51C006B4659709A7018700098FFF7B4
:104E8000E3FF020403021B0E120E62702070A37077
:104E900013BD0000084A032113781800884304D189
:104EA0000B4001310B4313707047AB2BFCD90B4007
:104EB00058214942F6E7C0464027002010B5082097
:104EC000FFF72FFC04002320FFF713FC0100200054
:104ED00010BD70B505000C00FFF7DCFF29000820AD
:104EE000FFF77AFCE1B22320FFF75EFC70BD000003
:104EF000054B064A10B51A6000221A7118685968E5
:104F0000FFF7E7FF10BDC046402700200500FFFF68
:104F100070B501241F4D2B78234239D01E48FFF76E
:104F2000DDFB2B78234233D01C4E1D483178C90756
:104F3000C90FFFF7D3FB2B78234229D031781948CA
:104F40008907C90FFFF7CAFB2B78234220D031789D
:104F500015488908FFF7C2FB2B78234218D07178D7
:104F60001248FFF7BBFB2B78234211D0B1781048D1
:104F7000FFF7B4FB2B7823420AD0F1780D48FFF7F6
:104F8000ADFB2B78234203D031790B48FFF7A6FB0A
:104F900070BDC046C81100209AA600084027002016
:104FA000B3A60008D0A60008F0A600080BA70008CA
:104FB00025A700083FA7000859A70008034B1A7847
:104FC000D307DB0F181E00D0900870474027002041
:104FD00010B5064A1379022B01D80133137100284A
:104FE00003D010685168FFF774FF10BD4027002000
:104FF00010B50120FFF7ECFF10BD000010B5064A08
:105000001379002B01D0013B1371002803D01068E5
:105010005168FFF75EFF10BD4027002010B501204A
:10502000FFF7ECFF10BD000073B5104B104D1B785F
:105030006978DB07DB0F0F4809D003232A7889B290
:105040005343C0180C4B5B680193984773BD032210
:10505000AC78EE7862438218A642EED901345370E0
:1050600013709370E4B20332F6E7C0464027002085
:10507000730C002048270020FCB400080B4B70B5CF
:105080001B78DB070AD50A4B0A4E9C78DD78032390
:1050900063439B19AC4202D3FFF7C6FF70BD0134D6
:1050A000587019709A70E4B20333F3E74027002078
:1050B000730C002048270020074B13B51B78DB0733
:1050C00008D501AC2300FFF7D3FEA27821786078E1
:1050D000FFF7D4FF13BDC0464027002010B50400E1
:1050E0000379054AD25C054B99785878FFF7E4FFBD
:1050F00023790133237110BDFBB300084027002042
:1051000010B50400044B0079DA789978FFF7D4FFE2
:1051100023790133237110BD4027002073B5154D4D
:1051200004002878002807D1FF2201AE33001100C7
:10513000FFF79EFE73782B702179012912D0002988
:105140000DD0022912D0002210001100FFF796FFA7
:10515000207903210130FBF7CFF9217173BD287845
:105160000A00F3E7002229781000EFE700202A78F0
:105170000100EBE740220020F0B505000120444C7F
:105180008DB0039121781600079301422AD0414A3D
:105190008B08414FD25C3A700327B943042923D1CD
:1051A0000BAC3200039928002300FFF761FEA278C0
:1051B00021786078FFF762FF354C039B6570A37020
:1051C000079BE670354F002B59D020686168FFF7C8
:1051D00080FE3B78DB0705D5E378A278617830481C
:1051E000FFF77CFA0DB0F0BD022A01D1E678E3E7C3
:1051F000062A02D1264B5D78DEE7092AFAD0192A61
:10520000DAD1193BDBB21A000240059202000024F9
:105210009A430692234A5B08D35C0890049309974B
:10522000214B1979A14202D8FFF7FEFEC4E704988A
:105230006043FBF77BF8059BC0B22F1AFFB2002B2F
:1052400001D12818C7B2154B089A1B78134207D012
:10525000049B3A0000932100069B1448FFF73EFA96
:10526000114B099A9B7803991B195343104A380034
:105270009B1801343200FFF7FBFDE4B2D0E73B7826
:10528000DB07AFD53300039A29000A48A8E7C046D8
:1052900040270020D0B3000842220020C81100207F
:1052A000A4A80008B9B30008730C00207DA800086A
:1052B00048270020C9A8000810B5054C0300E27873
:1052C000A17864780834E0B2FFF756FF10BDC046FD
:1052D0004027002010B50120FFF7EEFF10BD0000B1
:1052E00010B5054C0300E278A1786478083CE0B280
:1052F000FFF742FF10BDC0464027002010B5012037
:10530000FFF7EEFF10BD000070B5074D0300AC784D
:10531000EA781134211CFF2C00D9FF216878C9B22A
:10532000FFF72AFF70BDC0464027002010B50120BE
:10533000FFF7EAFF10BD000070B5074D0300AC7821
:10534000EA78113C24B2211C002C00DA0021687894
:10535000C9B2FFF711FF70BD4027002010B5012032
:10536000FFF7EAFF10BD000010B5074C0300E1781D
:1053700011310A1CFF2900D9FF22D2B2A17860782E
:10538000FFF7FAFE10BDC0464027002010B50120EF
:10539000FFF7EAFF10BD000010B5074C0300E178ED
:1053A000113909B20A1C002900DA0022D2B2A17810
:1053B0006078FFF7E1FE10BD4027002010B5012006
:1053C000FFF7EAFF10BD10B50023FFF7D5FE10BDB3
:1053D000F7B506000024144B1979A14209D8FFF74C
:1053E00023FEB2783379D2071CD501335BB2337117
:1053F000F7BD9D7803232D195D430C4BFF20ED185D
:105400000B4BDA7801929F78FAF790FF604333797B
:10541000019AC018C0B22B0039000134FFF728FDF3
:10542000E4B2D8E7013BE1E7730C002048270020F5
:1054300040270020F7B5012283780092134202D062
:1054400001235B4200930026274C2379B3420CD8FA
:10545000FFF7EAFD009B254D012B3DD12B78002B5A
:1054600000D12379013B2B70F7BD0323A5780024DD
:10547000AD195D431E4B2700ED186B461B786C7011
:105480002C70AC700193194B19786118C9B248B2ED
:1054900014281ADD1421FBF72FF848B286420BD1ED
:1054A0000422144BD21BD97858784A439210997829
:1054B000D2B22B00FFF7DCFC019B0137E418E4B209
:1054C000042FE0D10136F6B2BEE70028E6DA064B3B
:1054D0001879081840B2E1E7287821790130FBF704
:1054E0000BF82970C0E7C046730C00204122002051
:1054F0004827002040270020F8B503230021264D2F
:10550000264EAA78E87853439B1990421AD8002473
:105510002979234FA1421CD8FFF786FD214C224850
:105520003B7801782278CB188A185BB252B23B7074
:105530002270002A03DD2A79013A934201DB4942B5
:105540000170F8BD0132597019709970D2B20333ED
:10555000DBE72000FAF7D0FF0022AB78BA56CB1871
:10556000DBB2944210DB0F4A127852B294420BDC49
:10557000032253430D48F318C27881784078FFF72F
:1055800077FC0134E4B2C3E7032253430022F1184D
:105590004A70F2548A70F4E7730C00204827002008
:1055A0003F220020700C0020710C002040270020BA
:1055B000F8B5027920231100552551439B1A514318
:1055C0001A00060028005A43534348435918FAF773
:1055D00023FEC7B2C4B20320292F17D8604340105E
:1055E000C4430025E4B2174B1A79AA4215D8FFF735
:1055F0001BFD3379144A0121002B02D0202B01D14D
:10560000FF21117012789B183371F8BD2C1B604379
:10561000C40F24186410E443E3E702223800154263
:1056200002D15332D01BC0B29A780323521953438C
:10563000064A01359B18064AEDB291782200FFF721
:1056400017FCD0E7730C0020720C002048270020C4
:1056500040270020F8B5040000250326124B1A79D4
:10566000AA4207DCFFF7E0FC012223790133134053
:105670002371F8BD9B780D495B1973430C4F5B1880
:10568000217978788C465208B978AA4207DD6246BB
:10569000002A07D0FA78FFF7EBFB0135DEE7624618
:1056A000002AF7D00022F6E7730C002048270020DC
:1056B00040270020F0B5837885B00193037900245A
:1056C0000093012305250371444BDB785B087F338E
:1056D000DB090393424B1B79A34203D8FFF7A4FCD9
:1056E00005B0F0BD019B3F4F022B07D82B003B4A72
:1056F00063435178F9549278FB185A70009B002B41
:1057000018D12B006343FF18009BFB70BB70344B18
:105710002E009A7803231219664353433148324AC4
:1057200081199B18305C8A7801344978FFF7A0FB17
:10573000E4B2CFE72B006343FE18F0780293002811
:1057400017D0FF270138C0B2F07031797843FAF7EB
:10575000EDFD264B3840185CBB212238C0B278439F
:10576000FAF7E4FD1D4B3840DF7847433F12B7702E
:10577000CDE7FBF755F9FF21FAF7BEFE039B9942EF
:10578000C5DA019B022B10D9FBF74AF9FF21FAF782
:10579000B3FE029BF954FBF743F9104B9F787F0847
:1057A0003900FAF7A9FE7F1877702A0000216243BA
:1057B0000C4B9A189170094AD1780A1CC82907D94C
:1057C0000B4A1278290061435B181A71DA709EE760
:1057D000C9B21429F6D21422F4E7C04640270020AB
:1057E000730C0020DB21002048270020FBB30008B9
:1057F000B4B300080C4B10B519780B2289080B487C
:10580000FAF7CEFF002802D10122094B5A7001F0AD
:105810009FFF084B1880084B1B78DB0702D5074811
:10582000FEF75CFF10BDC04640270020780C00202A
:1058300042220020D4210020C811002009A900081C
:105840000022054B10B55A70044B1B78DB0702D5BC
:105850000348FEF743FF10BD42220020C81100207C
:10586000F0A8000870B5204C2378DA0727D503226A
:10587000002825D113400132134323701B4D00290A
:1058800028D020686168FFF724FB2B78DB0704D55C
:10589000217817488908FEF721FF21780B22890813
:1058A0001448FAF77DFF00281BD0FFF7C9FF01223B
:1058B000114BDA70E278A1786078FFF784FD70BD53
:1058C0002A2803D9134058225242D5E780001340BA
:1058D0000343D2E72B78DB07DFD521780748890817
:1058E000D9E7FFF787FFE2E740270020C811002033
:1058F00043A80008780C0020D42100205FA80008ED
:10590000054B01001B7810B59B08581C2A2800D9AC
:105910000120FFF7A7FF10BD4027002010B5012090
:10592000FFF7EEFF10BD0000064B01001B7810B51D
:105930009B08013BD8B2002800D12A30FFF792FF24
:1059400010BDC0464027002010B50120FFF7ECFF36
:1059500010BD10B50121FFF785FF10BD012110B565
:10596000074C23780B432370064B1B780B4202D065
:105970000548FEF7B3FE20788008FFF7EAFF10BD68
:1059800040270020C8110020ADA7000810B5002155
:10599000FFF768FF10BD000073B5194D2B78002B81
:1059A0002DD1184E3378DB0702D51748FEF796FE47
:1059B000FFF784FAFC23154C2060616018420BD17C
:1059C0003378DB0702D51248FEF788FEFFF790FA1E
:1059D000FFF774FA20606160FFF75CFAFFF798FA4E
:1059E00000220C4B5A700C4B1B680193984720788F
:1059F000C30702D58008FFF7C9FF01232B7073BDD1
:105A0000DA210020C8110020E4A700084027002068
:105A1000FAA7000842220020FCB4000870B5012556
:105A20000B4C2378AB43237020686168FFF751FA71
:105A3000084B1B782B4205D021780748C907C90FAE
:105A4000FEF74CFEFFF7FCFEFFF7EEFA70BDC04616
:105A500040270020C811002075A700080B4B10B587
:105A60001A7801230A4C1A4206D021780948C9073E
:105A7000C90F5940FEF732FE2378DB0702D5FFF746
:105A8000CDFF10BDFFF76AFFFBE7C046C81100203D
:105A90004027002022A90008F8B5304B5A78002A88
:105AA00021D02F4A1B7810782E4C8008C01AC0B223
:105AB000A070022B18D12C4B2C4D1E5CE378002BD0
:105AC00005D00027E77001F043FEA780208001F099
:105AD0003FFE2388264AC01A80B2904203D89E19FE
